{"contracts/DailyCheckIn.sol":{"DailyCheckIn":{"abi":[{"anonymous":false,"inputs":[{"indexed":true,"internalType":"address","name":"user","type":"address"},{"indexed":false,"internalType":"uint256","name":"timestamp","type":"uint256"},{"indexed":false,"internalType":"uint256","name":"currentStreak","type":"uint256"},{"indexed":false,"internalType":"uint256","name":"bestStreak","type":"uint256"}],"name":"CheckedIn","type":"event"},{"inputs":[],"name":"checkIn","outputs":[],"stateMutability":"nonpayable","type":"function"},{"inputs":[{"internalType":"address","name":"user","type":"address"}],"name":"getUserInfo","outputs":[{"components":[{"internalType":"uint256","name":"lastCheckIn","type":"uint256"},{"internalType":"uint256","name":"totalCheckIns","type":"uint256"},{"internalType":"uint256","name":"currentMonthStreak","type":"uint256"},{"internalType":"uint256","name":"bestMonthStreak","type":"uint256"},{"internalType":"uint256","name":"currentMonthStart","type":"uint256"},{"internalType":"uint256","name":"bestMonthTimestamp","type":"uint256"}],"internalType":"struct DailyCheckIn.UserInfo","name":"","type":"tuple"}],"stateMutability":"view","type":"function"},{"inputs":[{"internalType":"address","name":"user","type":"address"}],"name":"hasCheckedInToday","outputs":[{"internalType":"bool","name":"","type":"bool"}],"stateMutability":"view","type":"function"},{"inputs":[{"internalType":"address","name":"","type":"address"}],"name":"users","outputs":[{"internalType":"uint256","name":"lastCheckIn","type":"uint256"},{"internalType":"uint256","name":"totalCheckIns","type":"uint256"},{"internalType":"uint256","name":"currentMonthStreak","type":"uint256"},{"internalType":"uint256","name":"bestMonthStreak","type":"uint256"},{"internalType":"uint256","name":"currentMonthStart","type":"uint256"},{"internalType":"uint256","name":"bestMonthTimestamp","type":"uint256"}],"stateMutability":"view","type":"function"}],"devdoc":{"details":"Tracks daily check-ins, current month streak, and best month streak","kind":"dev","methods":{"checkIn()":{"details":"Can only check in once per day. Resets streak if new month started."},"getUserInfo(address)":{"params":{"user":"Address of the user"},"returns":{"_0":"UserInfo struct with all user data"}},"hasCheckedInToday(address)":{"params":{"user":"Address of the user"},"returns":{"_0":"true if checked in today, false otherwise"}}},"title":"DailyCheckIn","version":1},"evm":{"bytecode":{"linkReferences":{},"object":"608060405234801561001057600080fd5b506108c2806100206000396000f3fe608060405234801561001057600080fd5b506004361061004c5760003560e01c8063183ff085146100515780633504f52b1461005b5780636386c1c71461008b578063a87430ba146100bb575b600080fd5b6100596100f0565b005b61007560048036038101906100709190610551565b6102c7565b6040516100829190610599565b60405180910390f35b6100a560048036038101906100a09190610551565b61037c565b6040516100b29190610648565b60405180910390f35b6100d560048036038101906100d09190610551565b610410565b6040516100e796959493929190610672565b60405180910390f35b600033905060008060008373ffffffffffffffffffffffffffffffffffffffff1673ffffffffffffffffffffffffffffffffffffffff1681526020019081526020016000209050600042905060006101478261044c565b90506000610158846000015461044c565b905080821161019c576040517f08c379a000000000000000000000000000000000000000000000000000000000815260040161019390610730565b60405180910390fd5b60006101a78461046f565b905080856004015410156101f8578460030154856002015411156101e05784600201548560030181905550846004015485600501819055505b60018560020181905550808560040181905550610215565b600185600201600082825461020d919061077f565b925050819055505b8385600001819055506001856001016000828254610233919061077f565b925050819055508460030154856002015411156102655784600201548560030181905550846004015485600501819055505b8573ffffffffffffffffffffffffffffffffffffffff167f7e4c1be4a7f9736334ae1a21a54b75fe0b8ac49d1c72b89a21ec4802d4f6fabb85876002015488600301546040516102b7939291906107b3565b60405180910390a2505050505050565b6000806102d34261044c565b905060006103216000808673ffffffffffffffffffffffffffffffffffffffff1673ffffffffffffffffffffffffffffffffffffffff1681526020019081526020016000206000015461044c565b90508082148015610373575060008060008673ffffffffffffffffffffffffffffffffffffffff1673ffffffffffffffffffffffffffffffffffffffff16815260200190815260200160002060000154115b92505050919050565b6103846104b8565b6000808373ffffffffffffffffffffffffffffffffffffffff1673ffffffffffffffffffffffffffffffffffffffff1681526020019081526020016000206040518060c001604052908160008201548152602001600182015481526020016002820154815260200160038201548152602001600482015481526020016005820154815250509050919050565b60006020528060005260406000206000915090508060000154908060010154908060020154908060030154908060040154908060050154905086565b600062015180808361045e9190610819565b610468919061084a565b9050919050565b60008062015180836104819190610819565b90506000601e826104929190610819565b905062015180601e826104a5919061084a565b6104af919061084a565b92505050919050565b6040518060c001604052806000815260200160008152602001600081526020016000815260200160008152602001600081525090565b600080fd5b600073ffffffffffffffffffffffffffffffffffffffff82169050919050565b600061051e826104f3565b9050919050565b61052e81610513565b811461053957600080fd5b50565b60008135905061054b81610525565b92915050565b600060208284031215610567576105666104ee565b5b60006105758482850161053c565b91505092915050565b60008115159050919050565b6105938161057e565b82525050565b60006020820190506105ae600083018461058a565b92915050565b6000819050919050565b6105c7816105b4565b82525050565b60c0820160008201516105e360008501826105be565b5060208201516105f660208501826105be565b50604082015161060960408501826105be565b50606082015161061c60608501826105be565b50608082015161062f60808501826105be565b5060a082015161064260a08501826105be565b50505050565b600060c08201905061065d60008301846105cd565b92915050565b61066c816105b4565b82525050565b600060c0820190506106876000830189610663565b6106946020830188610663565b6106a16040830187610663565b6106ae6060830186610663565b6106bb6080830185610663565b6106c860a0830184610663565b979650505050505050565b600082825260208201905092915050565b7f416c726561647920636865636b656420696e20746f6461790000000000000000600082015250565b600061071a6018836106d3565b9150610725826106e4565b602082019050919050565b600060208201905081810360008301526107498161070d565b9050919050565b7f4e487b7100000000000000000000000000000000000000000000000000000000600052601160045260246000fd5b600061078a826105b4565b9150610795836105b4565b92508282019050808211156107ad576107ac610750565b5b92915050565b60006060820190506107c86000830186610663565b6107d56020830185610663565b6107e26040830184610663565b949350505050565b7f4e487b7100000000000000000000000000000000000000000000000000000000600052601260045260246000fd5b6000610824826105b4565b915061082f836105b4565b92508261083f5761083e6107ea565b5b828204905092915050565b6000610855826105b4565b9150610860836105b4565b925082820261086e816105b4565b9150828204841483151761088557610884610750565b5b509291505056fea264697066735822122022522bc30951966efe2bbf2bb62b4ca9a3c289334327e0c4962a95537faac6f064736f6c63430008180033","opcodes":"PUSH1 0x80 PUSH1 0x40 MSTORE CALLVALUE DUP1 ISZERO PUSH2 0x10 JUMPI PUSH1 0x0 DUP1 REVERT JUMPDEST POP PUSH2 0x8C2 DUP1 PUSH2 0x20 PUSH1 0x0 CODECOPY PUSH1 0x0 RETURN INVALID PUSH1 0x80 PUSH1 0x40 MSTORE CALLVALUE DUP1 ISZERO PUSH2 0x10 JUMPI PUSH1 0x0 DUP1 REVERT JUMPDEST POP PUSH1 0x4 CALLDATASIZE LT PUSH2 0x4C JUMPI PUSH1 0x0 CALLDATALOAD PUSH1 0xE0 SHR DUP1 PUSH4 0x183FF085 EQ PUSH2 0x51 JUMPI DUP1 PUSH4 0x3504F52B EQ PUSH2 0x5B JUMPI DUP1 PUSH4 0x6386C1C7 EQ PUSH2 0x8B JUMPI DUP1 PUSH4 0xA87430BA EQ PUSH2 0xBB JUMPI JUMPDEST PUSH1 0x0 DUP1 REVERT JUMPDEST PUSH2 0x59 PUSH2 0xF0 JUMP JUMPDEST STOP JUMPDEST PUSH2 0x75 PUSH1 0x4 DUP1 CALLDATASIZE SUB DUP2 ADD SWAP1 PUSH2 0x70 SWAP2 SWAP1 PUSH2 0x551 JUMP JUMPDEST PUSH2 0x2C7 JUMP JUMPDEST PUSH1 0x40 MLOAD PUSH2 0x82 SWAP2 SWAP1 PUSH2 0x599 JUMP JUMPDEST PUSH1 0x40 MLOAD DUP1 SWAP2 SUB SWAP1 RETURN JUMPDEST PUSH2 0xA5 PUSH1 0x4 DUP1 CALLDATASIZE SUB DUP2 ADD SWAP1 PUSH2 0xA0 SWAP2 SWAP1 PUSH2 0x551 JUMP JUMPDEST PUSH2 0x37C JUMP JUMPDEST PUSH1 0x40 MLOAD PUSH2 0xB2 SWAP2 SWAP1 PUSH2 0x648 JUMP JUMPDEST PUSH1 0x40 MLOAD DUP1 SWAP2 SUB SWAP1 RETURN JUMPDEST PUSH2 0xD5 PUSH1 0x4 DUP1 CALLDATASIZE SUB DUP2 ADD SWAP1 PUSH2 0xD0 SWAP2 SWAP1 PUSH2 0x551 JUMP JUMPDEST PUSH2 0x410 JUMP JUMPDEST PUSH1 0x40 MLOAD PUSH2 0xE7 SWAP7 SWAP6 SWAP5 SWAP4 SWAP3 SWAP2 SWAP1 PUSH2 0x672 JUMP JUMPDEST PUSH1 0x40 MLOAD DUP1 SWAP2 SUB SWAP1 RETURN JUMPDEST PUSH1 0x0 CALLER SWAP1 POP PUSH1 0x0 DUP1 PUSH1 0x0 DUP4 PUSH20 0xFFFFFFFFFFFFFFFFFFFFFFFFFFFFFFFFFFFFFFFF AND PUSH20 0xFFFFFFFFFFFFFFFFFFFFFFFFFFFFFFFFFFFFFFFF AND DUP2 MSTORE PUSH1 0x20 ADD SWAP1 DUP2 MSTORE PUSH1 0x20 ADD PUSH1 0x0 KECCAK256 SWAP1 POP PUSH1 0x0 TIMESTAMP SWAP1 POP PUSH1 0x0 PUSH2 0x147 DUP3 PUSH2 0x44C JUMP JUMPDEST SWAP1 POP PUSH1 0x0 PUSH2 0x158 DUP5 PUSH1 0x0 ADD SLOAD PUSH2 0x44C JUMP JUMPDEST SWAP1 POP DUP1 DUP3 GT PUSH2 0x19C JUMPI PUSH1 0x40 MLOAD PUSH32 0x8C379A000000000000000000000000000000000000000000000000000000000 DUP2 MSTORE PUSH1 0x4 ADD PUSH2 0x193 SWAP1 PUSH2 0x730 JUMP JUMPDEST PUSH1 0x40 MLOAD DUP1 SWAP2 SUB SWAP1 REVERT JUMPDEST PUSH1 0x0 PUSH2 0x1A7 DUP5 PUSH2 0x46F JUMP JUMPDEST SWAP1 POP DUP1 DUP6 PUSH1 0x4 ADD SLOAD LT ISZERO PUSH2 0x1F8 JUMPI DUP5 PUSH1 0x3 ADD SLOAD DUP6 PUSH1 0x2 ADD SLOAD GT ISZERO PUSH2 0x1E0 JUMPI DUP5 PUSH1 0x2 ADD SLOAD DUP6 PUSH1 0x3 ADD DUP2 SWAP1 SSTORE POP DUP5 PUSH1 0x4 ADD SLOAD DUP6 PUSH1 0x5 ADD DUP2 SWAP1 SSTORE POP JUMPDEST PUSH1 0x1 DUP6 PUSH1 0x2 ADD DUP2 SWAP1 SSTORE POP DUP1 DUP6 PUSH1 0x4 ADD DUP2 SWAP1 SSTORE POP PUSH2 0x215 JUMP JUMPDEST PUSH1 0x1 DUP6 PUSH1 0x2 ADD PUSH1 0x0 DUP3 DUP3 SLOAD PUSH2 0x20D SWAP2 SWAP1 PUSH2 0x77F JUMP JUMPDEST SWAP3 POP POP DUP2 SWAP1 SSTORE POP JUMPDEST DUP4 DUP6 PUSH1 0x0 ADD DUP2 SWAP1 SSTORE POP PUSH1 0x1 DUP6 PUSH1 0x1 ADD PUSH1 0x0 DUP3 DUP3 SLOAD PUSH2 0x233 SWAP2 SWAP1 PUSH2 0x77F JUMP JUMPDEST SWAP3 POP POP DUP2 SWAP1 SSTORE POP DUP5 PUSH1 0x3 ADD SLOAD DUP6 PUSH1 0x2 ADD SLOAD GT ISZERO PUSH2 0x265 JUMPI DUP5 PUSH1 0x2 ADD SLOAD DUP6 PUSH1 0x3 ADD DUP2 SWAP1 SSTORE POP DUP5 PUSH1 0x4 ADD SLOAD DUP6 PUSH1 0x5 ADD DUP2 SWAP1 SSTORE POP JUMPDEST DUP6 PUSH20 0xFFFFFFFFFFFFFFFFFFFFFFFFFFFFFFFFFFFFFFFF AND PUSH32 0x7E4C1BE4A7F9736334AE1A21A54B75FE0B8AC49D1C72B89A21EC4802D4F6FABB DUP6 DUP8 PUSH1 0x2 ADD SLOAD DUP9 PUSH1 0x3 ADD SLOAD PUSH1 0x40 MLOAD PUSH2 0x2B7 SWAP4 SWAP3 SWAP2 SWAP1 PUSH2 0x7B3 JUMP JUMPDEST PUSH1 0x40 MLOAD DUP1 SWAP2 SUB SWAP1 LOG2 POP POP POP POP POP POP JUMP JUMPDEST PUSH1 0x0 DUP1 PUSH2 0x2D3 TIMESTAMP PUSH2 0x44C JUMP JUMPDEST SWAP1 POP PUSH1 0x0 PUSH2 0x321 PUSH1 0x0 DUP1 DUP7 PUSH20 0xFFFFFFFFFFFFFFFFFFFFFFFFFFFFFFFFFFFFFFFF AND PUSH20 0xFFFFFFFFFFFFFFFFFFFFFFFFFFFFFFFFFFFFFFFF AND DUP2 MSTORE PUSH1 0x20 ADD SWAP1 DUP2 MSTORE PUSH1 0x20 ADD PUSH1 0x0 KECCAK256 PUSH1 0x0 ADD SLOAD PUSH2 0x44C JUMP JUMPDEST SWAP1 POP DUP1 DUP3 EQ DUP1 ISZERO PUSH2 0x373 JUMPI POP PUSH1 0x0 DUP1 PUSH1 0x0 DUP7 PUSH20 0xFFFFFFFFFFFFFFFFFFFFFFFFFFFFFFFFFFFFFFFF AND PUSH20 0xFFFFFFFFFFFFFFFFFFFFFFFFFFFFFFFFFFFFFFFF AND DUP2 MSTORE PUSH1 0x20 ADD SWAP1 DUP2 MSTORE PUSH1 0x20 ADD PUSH1 0x0 KECCAK256 PUSH1 0x0 ADD SLOAD GT JUMPDEST SWAP3 POP POP POP SWAP2 SWAP1 POP JUMP JUMPDEST PUSH2 0x384 PUSH2 0x4B8 JUMP JUMPDEST PUSH1 0x0 DUP1 DUP4 PUSH20 0xFFFFFFFFFFFFFFFFFFFFFFFFFFFFFFFFFFFFFFFF AND PUSH20 0xFFFFFFFFFFFFFFFFFFFFFFFFFFFFFFFFFFFFFFFF AND DUP2 MSTORE PUSH1 0x20 ADD SWAP1 DUP2 MSTORE PUSH1 0x20 ADD PUSH1 0x0 KECCAK256 PUSH1 0x40 MLOAD DUP1 PUSH1 0xC0 ADD PUSH1 0x40 MSTORE SWAP1 DUP2 PUSH1 0x0 DUP3 ADD SLOAD DUP2 MSTORE PUSH1 0x20 ADD PUSH1 0x1 DUP3 ADD SLOAD DUP2 MSTORE PUSH1 0x20 ADD PUSH1 0x2 DUP3 ADD SLOAD DUP2 MSTORE PUSH1 0x20 ADD PUSH1 0x3 DUP3 ADD SLOAD DUP2 MSTORE PUSH1 0x20 ADD PUSH1 0x4 DUP3 ADD SLOAD DUP2 MSTORE PUSH1 0x20 ADD PUSH1 0x5 DUP3 ADD SLOAD DUP2 MSTORE POP POP SWAP1 POP SWAP2 SWAP1 POP JUMP JUMPDEST PUSH1 0x0 PUSH1 0x20 MSTORE DUP1 PUSH1 0x0 MSTORE PUSH1 0x40 PUSH1 0x0 KECCAK256 PUSH1 0x0 SWAP2 POP SWAP1 POP DUP1 PUSH1 0x0 ADD SLOAD SWAP1 DUP1 PUSH1 0x1 ADD SLOAD SWAP1 DUP1 PUSH1 0x2 ADD SLOAD SWAP1 DUP1 PUSH1 0x3 ADD SLOAD SWAP1 DUP1 PUSH1 0x4 ADD SLOAD SWAP1 DUP1 PUSH1 0x5 ADD SLOAD SWAP1 POP DUP7 JUMP JUMPDEST PUSH1 0x0 PUSH3 0x15180 DUP1 DUP4 PUSH2 0x45E SWAP2 SWAP1 PUSH2 0x819 JUMP JUMPDEST PUSH2 0x468 SWAP2 SWAP1 PUSH2 0x84A JUMP JUMPDEST SWAP1 POP SWAP2 SWAP1 POP JUMP JUMPDEST PUSH1 0x0 DUP1 PUSH3 0x15180 DUP4 PUSH2 0x481 SWAP2 SWAP1 PUSH2 0x819 JUMP JUMPDEST SWAP1 POP PUSH1 0x0 PUSH1 0x1E DUP3 PUSH2 0x492 SWAP2 SWAP1 PUSH2 0x819 JUMP JUMPDEST SWAP1 POP PUSH3 0x15180 PUSH1 0x1E DUP3 PUSH2 0x4A5 SWAP2 SWAP1 PUSH2 0x84A JUMP JUMPDEST PUSH2 0x4AF SWAP2 SWAP1 PUSH2 0x84A JUMP JUMPDEST SWAP3 POP POP POP SWAP2 SWAP1 POP JUMP JUMPDEST PUSH1 0x40 MLOAD DUP1 PUSH1 0xC0 ADD PUSH1 0x40 MSTORE DUP1 PUSH1 0x0 DUP2 MSTORE PUSH1 0x20 ADD PUSH1 0x0 DUP2 MSTORE PUSH1 0x20 ADD PUSH1 0x0 DUP2 MSTORE PUSH1 0x20 ADD PUSH1 0x0 DUP2 MSTORE PUSH1 0x20 ADD PUSH1 0x0 DUP2 MSTORE PUSH1 0x20 ADD PUSH1 0x0 DUP2 MSTORE POP SWAP1 JUMP JUMPDEST PUSH1 0x0 DUP1 REVERT JUMPDEST PUSH1 0x0 PUSH20 0xFFFFFFFFFFFFFFFFFFFFFFFFFFFFFFFFFFFFFFFF DUP3 AND SWAP1 POP SWAP2 SWAP1 POP JUMP JUMPDEST PUSH1 0x0 PUSH2 0x51E DUP3 PUSH2 0x4F3 JUMP JUMPDEST SWAP1 POP SWAP2 SWAP1 POP JUMP JUMPDEST PUSH2 0x52E DUP2 PUSH2 0x513 JUMP JUMPDEST DUP2 EQ PUSH2 0x539 JUMPI PUSH1 0x0 DUP1 REVERT JUMPDEST POP JUMP JUMPDEST PUSH1 0x0 DUP2 CALLDATALOAD SWAP1 POP PUSH2 0x54B DUP2 PUSH2 0x525 JUMP JUMPDEST SWAP3 SWAP2 POP POP JUMP JUMPDEST PUSH1 0x0 PUSH1 0x20 DUP3 DUP5 SUB SLT ISZERO PUSH2 0x567 JUMPI PUSH2 0x566 PUSH2 0x4EE JUMP JUMPDEST JUMPDEST PUSH1 0x0 PUSH2 0x575 DUP5 DUP3 DUP6 ADD PUSH2 0x53C JUMP JUMPDEST SWAP2 POP POP SWAP3 SWAP2 POP POP JUMP JUMPDEST PUSH1 0x0 DUP2 ISZERO ISZERO SWAP1 POP SWAP2 SWAP1 POP JUMP JUMPDEST PUSH2 0x593 DUP2 PUSH2 0x57E JUMP JUMPDEST DUP3 MSTORE POP POP JUMP JUMPDEST PUSH1 0x0 PUSH1 0x20 DUP3 ADD SWAP1 POP PUSH2 0x5AE PUSH1 0x0 DUP4 ADD DUP5 PUSH2 0x58A JUMP JUMPDEST SWAP3 SWAP2 POP POP JUMP JUMPDEST PUSH1 0x0 DUP2 SWAP1 POP SWAP2 SWAP1 POP JUMP JUMPDEST PUSH2 0x5C7 DUP2 PUSH2 0x5B4 JUMP JUMPDEST DUP3 MSTORE POP POP JUMP JUMPDEST PUSH1 0xC0 DUP3 ADD PUSH1 0x0 DUP3 ADD MLOAD PUSH2 0x5E3 PUSH1 0x0 DUP6 ADD DUP3 PUSH2 0x5BE JUMP JUMPDEST POP PUSH1 0x20 DUP3 ADD MLOAD PUSH2 0x5F6 PUSH1 0x20 DUP6 ADD DUP3 PUSH2 0x5BE JUMP JUMPDEST POP PUSH1 0x40 DUP3 ADD MLOAD PUSH2 0x609 PUSH1 0x40 DUP6 ADD DUP3 PUSH2 0x5BE JUMP JUMPDEST POP PUSH1 0x60 DUP3 ADD MLOAD PUSH2 0x61C PUSH1 0x60 DUP6 ADD DUP3 PUSH2 0x5BE JUMP JUMPDEST POP PUSH1 0x80 DUP3 ADD MLOAD PUSH2 0x62F PUSH1 0x80 DUP6 ADD DUP3 PUSH2 0x5BE JUMP JUMPDEST POP PUSH1 0xA0 DUP3 ADD MLOAD PUSH2 0x642 PUSH1 0xA0 DUP6 ADD DUP3 PUSH2 0x5BE JUMP JUMPDEST POP POP POP POP JUMP JUMPDEST PUSH1 0x0 PUSH1 0xC0 DUP3 ADD SWAP1 POP PUSH2 0x65D PUSH1 0x0 DUP4 ADD DUP5 PUSH2 0x5CD JUMP JUMPDEST SWAP3 SWAP2 POP POP JUMP JUMPDEST PUSH2 0x66C DUP2 PUSH2 0x5B4 JUMP JUMPDEST DUP3 MSTORE POP POP JUMP JUMPDEST PUSH1 0x0 PUSH1 0xC0 DUP3 ADD SWAP1 POP PUSH2 0x687 PUSH1 0x0 DUP4 ADD DUP10 PUSH2 0x663 JUMP JUMPDEST PUSH2 0x694 PUSH1 0x20 DUP4 ADD DUP9 PUSH2 0x663 JUMP JUMPDEST PUSH2 0x6A1 PUSH1 0x40 DUP4 ADD DUP8 PUSH2 0x663 JUMP JUMPDEST PUSH2 0x6AE PUSH1 0x60 DUP4 ADD DUP7 PUSH2 0x663 JUMP JUMPDEST PUSH2 0x6BB PUSH1 0x80 DUP4 ADD DUP6 PUSH2 0x663 JUMP JUMPDEST PUSH2 0x6C8 PUSH1 0xA0 DUP4 ADD DUP5 PUSH2 0x663 JUMP JUMPDEST SWAP8 SWAP7 POP POP POP POP POP POP POP JUMP JUMPDEST PUSH1 0x0 DUP3 DUP3 MSTORE PUSH1 0x20 DUP3 ADD SWAP1 POP SWAP3 SWAP2 POP POP JUMP JUMPDEST PUSH32 0x416C726561647920636865636B656420696E20746F6461790000000000000000 PUSH1 0x0 DUP3 ADD MSTORE POP JUMP JUMPDEST PUSH1 0x0 PUSH2 0x71A PUSH1 0x18 DUP4 PUSH2 0x6D3 JUMP JUMPDEST SWAP2 POP PUSH2 0x725 DUP3 PUSH2 0x6E4 JUMP JUMPDEST PUSH1 0x20 DUP3 ADD SWAP1 POP SWAP2 SWAP1 POP JUMP JUMPDEST PUSH1 0x0 PUSH1 0x20 DUP3 ADD SWAP1 POP DUP2 DUP2 SUB PUSH1 0x0 DUP4 ADD MSTORE PUSH2 0x749 DUP2 PUSH2 0x70D JUMP JUMPDEST SWAP1 POP SWAP2 SWAP1 POP JUMP JUMPDEST PUSH32 0x4E487B7100000000000000000000000000000000000000000000000000000000 PUSH1 0x0 MSTORE PUSH1 0x11 PUSH1 0x4 MSTORE PUSH1 0x24 PUSH1 0x0 REVERT JUMPDEST PUSH1 0x0 PUSH2 0x78A DUP3 PUSH2 0x5B4 JUMP JUMPDEST SWAP2 POP PUSH2 0x795 DUP4 PUSH2 0x5B4 JUMP JUMPDEST SWAP3 POP DUP3 DUP3 ADD SWAP1 POP DUP1 DUP3 GT ISZERO PUSH2 0x7AD JUMPI PUSH2 0x7AC PUSH2 0x750 JUMP JUMPDEST JUMPDEST SWAP3 SWAP2 POP POP JUMP JUMPDEST PUSH1 0x0 PUSH1 0x60 DUP3 ADD SWAP1 POP PUSH2 0x7C8 PUSH1 0x0 DUP4 ADD DUP7 PUSH2 0x663 JUMP JUMPDEST PUSH2 0x7D5 PUSH1 0x20 DUP4 ADD DUP6 PUSH2 0x663 JUMP JUMPDEST PUSH2 0x7E2 PUSH1 0x40 DUP4 ADD DUP5 PUSH2 0x663 JUMP JUMPDEST SWAP5 SWAP4 POP POP POP POP JUMP JUMPDEST PUSH32 0x4E487B7100000000000000000000000000000000000000000000000000000000 PUSH1 0x0 MSTORE PUSH1 0x12 PUSH1 0x4 MSTORE PUSH1 0x24 PUSH1 0x0 REVERT JUMPDEST PUSH1 0x0 PUSH2 0x824 DUP3 PUSH2 0x5B4 JUMP JUMPDEST SWAP2 POP PUSH2 0x82F DUP4 PUSH2 0x5B4 JUMP JUMPDEST SWAP3 POP DUP3 PUSH2 0x83F JUMPI PUSH2 0x83E PUSH2 0x7EA JUMP JUMPDEST JUMPDEST DUP3 DUP3 DIV SWAP1 POP SWAP3 SWAP2 POP POP JUMP JUMPDEST PUSH1 0x0 PUSH2 0x855 DUP3 PUSH2 0x5B4 JUMP JUMPDEST SWAP2 POP PUSH2 0x860 DUP4 PUSH2 0x5B4 JUMP JUMPDEST SWAP3 POP DUP3 DUP3 MUL PUSH2 0x86E DUP2 PUSH2 0x5B4 JUMP JUMPDEST SWAP2 POP DUP3 DUP3 DIV DUP5 EQ DUP4 ISZERO OR PUSH2 0x885 JUMPI PUSH2 0x884 PUSH2 0x750 JUMP JUMPDEST JUMPDEST POP SWAP3 SWAP2 POP POP JUMP INVALID LOG2 PUSH5 0x6970667358 0x22 SLT KECCAK256 0x22 MSTORE 0x2B 0xC3 MULMOD MLOAD SWAP7 PUSH15 0xFE2BBF2BB62B4CA9A3C289334327E0 0xC4 SWAP7 0x2A SWAP6 MSTORE8 PUSH32 0xAAC6F064736F6C63430008180033000000000000000000000000000000000000 "},"gasEstimates":{"creation":{"codeDepositCost":"448400","executionCost":"486","totalCost":"448886"},"external":{"checkIn()":"infinite","getUserInfo(address)":"infinite","hasCheckedInToday(address)":"infinite","users(address)":"infinite"},"internal":{"_getDayStart(uint256)":"infinite","_getMonthStart(uint256)":"infinite"}},"methodIdentifiers":{"checkIn()":"183ff085","getUserInfo(address)":"6386c1c7","hasCheckedInToday(address)":"3504f52b","users(address)":"a87430ba"}},"storageLayout":{"storage":[{"astId":20,"contract":"contracts/DailyCheckIn.sol:DailyCheckIn","label":"users","offset":0,"slot":"0","type":"t_mapping(t_address,t_struct(UserInfo)15_storage)"}],"types":{"t_address":{"encoding":"inplace","label":"address","numberOfBytes":"20"},"t_mapping(t_address,t_struct(UserInfo)15_storage)":{"encoding":"mapping","key":"t_address","label":"mapping(address => struct DailyCheckIn.UserInfo)","numberOfBytes":"32","value":"t_struct(UserInfo)15_storage"},"t_struct(UserInfo)15_storage":{"encoding":"inplace","label":"struct DailyCheckIn.UserInfo","members":[{"astId":4,"contract":"contracts/DailyCheckIn.sol:DailyCheckIn","label":"lastCheckIn","offset":0,"slot":"0","type":"t_uint256"},{"astId":6,"contract":"contracts/DailyCheckIn.sol:DailyCheckIn","label":"totalCheckIns","offset":0,"slot":"1","type":"t_uint256"},{"astId":8,"contract":"contracts/DailyCheckIn.sol:DailyCheckIn","label":"currentMonthStreak","offset":0,"slot":"2","type":"t_uint256"},{"astId":10,"contract":"contracts/DailyCheckIn.sol:DailyCheckIn","label":"bestMonthStreak","offset":0,"slot":"3","type":"t_uint256"},{"astId":12,"contract":"contracts/DailyCheckIn.sol:DailyCheckIn","label":"currentMonthStart","offset":0,"slot":"4","type":"t_uint256"},{"astId":14,"contract":"contracts/DailyCheckIn.sol:DailyCheckIn","label":"bestMonthTimestamp","offset":0,"slot":"5","type":"t_uint256"}],"numberOfBytes":"192"},"t_uint256":{"encoding":"inplace","label":"uint256","numberOfBytes":"32"}}},"userdoc":{"kind":"user","methods":{"checkIn()":{"notice":"Check in for today"},"getUserInfo(address)":{"notice":"Get user information"},"hasCheckedInToday(address)":{"notice":"Check if user has checked in today"}},"notice":"Contract for daily check-ins with BM (Best Month) streak tracking","version":1}}}}