{
  "_format": "hh-sol-artifact-1",
  "contractName": "FryReef",
  "sourceName": "contracts/FryReef.sol",
  "abi": [
    {
      "inputs": [
        {
          "internalType": "address",
          "name": "_eggNFT",
          "type": "address"
        },
        {
          "internalType": "address",
          "name": "_fishNFT",
          "type": "address"
        }
      ],
      "stateMutability": "nonpayable",
      "type": "constructor"
    },
    {
      "anonymous": false,
      "inputs": [
        {
          "indexed": true,
          "internalType": "address",
          "name": "user",
          "type": "address"
        },
        {
          "indexed": false,
          "internalType": "uint256",
          "name": "streak",
          "type": "uint256"
        },
        {
          "indexed": false,
          "internalType": "uint256",
          "name": "totalCheckIns",
          "type": "uint256"
        }
      ],
      "name": "CheckedIn",
      "type": "event"
    },
    {
      "anonymous": false,
      "inputs": [
        {
          "indexed": true,
          "internalType": "address",
          "name": "user",
          "type": "address"
        },
        {
          "indexed": false,
          "internalType": "uint256",
          "name": "pearlShards",
          "type": "uint256"
        },
        {
          "indexed": false,
          "internalType": "uint256",
          "name": "spawnDust",
          "type": "uint256"
        }
      ],
      "name": "ResourcesUpdated",
      "type": "event"
    },
    {
      "anonymous": false,
      "inputs": [
        {
          "indexed": true,
          "internalType": "address",
          "name": "user",
          "type": "address"
        },
        {
          "indexed": false,
          "internalType": "uint256",
          "name": "eggId",
          "type": "uint256"
        },
        {
          "indexed": false,
          "internalType": "uint256",
          "name": "pearlShards",
          "type": "uint256"
        },
        {
          "indexed": false,
          "internalType": "uint256",
          "name": "spawnDust",
          "type": "uint256"
        }
      ],
      "name": "StarterPackClaimed",
      "type": "event"
    },
    {
      "anonymous": false,
      "inputs": [
        {
          "indexed": true,
          "internalType": "address",
          "name": "user",
          "type": "address"
        },
        {
          "indexed": false,
          "internalType": "uint256",
          "name": "pearlShards",
          "type": "uint256"
        }
      ],
      "name": "StreakReward",
      "type": "event"
    },
    {
      "inputs": [],
      "name": "EGG_LAYING_COST",
      "outputs": [
        {
          "internalType": "uint256",
          "name": "",
          "type": "uint256"
        }
      ],
      "stateMutability": "view",
      "type": "function"
    },
    {
      "inputs": [],
      "name": "INCUBATION_COST",
      "outputs": [
        {
          "internalType": "uint256",
          "name": "",
          "type": "uint256"
        }
      ],
      "stateMutability": "view",
      "type": "function"
    },
    {
      "inputs": [],
      "name": "INCUBATION_DURATION",
      "outputs": [
        {
          "internalType": "uint256",
          "name": "",
          "type": "uint256"
        }
      ],
      "stateMutability": "view",
      "type": "function"
    },
    {
      "inputs": [],
      "name": "PEARL_SHARD_REWARD",
      "outputs": [
        {
          "internalType": "uint256",
          "name": "",
          "type": "uint256"
        }
      ],
      "stateMutability": "view",
      "type": "function"
    },
    {
      "inputs": [],
      "name": "STARTER_PACK_EGGS",
      "outputs": [
        {
          "internalType": "uint256",
          "name": "",
          "type": "uint256"
        }
      ],
      "stateMutability": "view",
      "type": "function"
    },
    {
      "inputs": [],
      "name": "STARTER_PACK_PEARL_SHARDS",
      "outputs": [
        {
          "internalType": "uint256",
          "name": "",
          "type": "uint256"
        }
      ],
      "stateMutability": "view",
      "type": "function"
    },
    {
      "inputs": [],
      "name": "STARTER_PACK_SPAWN_DUST",
      "outputs": [
        {
          "internalType": "uint256",
          "name": "",
          "type": "uint256"
        }
      ],
      "stateMutability": "view",
      "type": "function"
    },
    {
      "inputs": [],
      "name": "STREAK_FOR_REWARD",
      "outputs": [
        {
          "internalType": "uint256",
          "name": "",
          "type": "uint256"
        }
      ],
      "stateMutability": "view",
      "type": "function"
    },
    {
      "inputs": [],
      "name": "checkIn",
      "outputs": [],
      "stateMutability": "nonpayable",
      "type": "function"
    },
    {
      "inputs": [],
      "name": "claimStarterPack",
      "outputs": [],
      "stateMutability": "nonpayable",
      "type": "function"
    },
    {
      "inputs": [],
      "name": "collectSpawnDust",
      "outputs": [],
      "stateMutability": "nonpayable",
      "type": "function"
    },
    {
      "inputs": [],
      "name": "eggNFT",
      "outputs": [
        {
          "internalType": "contract EggNFT",
          "name": "",
          "type": "address"
        }
      ],
      "stateMutability": "view",
      "type": "function"
    },
    {
      "inputs": [],
      "name": "fishNFT",
      "outputs": [
        {
          "internalType": "contract FishNFT",
          "name": "",
          "type": "address"
        }
      ],
      "stateMutability": "view",
      "type": "function"
    },
    {
      "inputs": [
        {
          "internalType": "address",
          "name": "_user",
          "type": "address"
        }
      ],
      "name": "getPendingSpawnDust",
      "outputs": [
        {
          "internalType": "uint256",
          "name": "",
          "type": "uint256"
        }
      ],
      "stateMutability": "view",
      "type": "function"
    },
    {
      "inputs": [
        {
          "internalType": "address",
          "name": "_user",
          "type": "address"
        }
      ],
      "name": "getResources",
      "outputs": [
        {
          "internalType": "uint256",
          "name": "pearlShards",
          "type": "uint256"
        },
        {
          "internalType": "uint256",
          "name": "spawnDust",
          "type": "uint256"
        }
      ],
      "stateMutability": "view",
      "type": "function"
    },
    {
      "inputs": [
        {
          "internalType": "address",
          "name": "_user",
          "type": "address"
        }
      ],
      "name": "getUserInfo",
      "outputs": [
        {
          "components": [
            {
              "internalType": "uint256",
              "name": "lastCheckIn",
              "type": "uint256"
            },
            {
              "internalType": "uint256",
              "name": "currentStreak",
              "type": "uint256"
            },
            {
              "internalType": "uint256",
              "name": "totalCheckIns",
              "type": "uint256"
            },
            {
              "internalType": "uint256",
              "name": "pearlShards",
              "type": "uint256"
            },
            {
              "internalType": "uint256",
              "name": "spawnDust",
              "type": "uint256"
            },
            {
              "internalType": "bool",
              "name": "starterPackClaimed",
              "type": "bool"
            }
          ],
          "internalType": "struct FryReef.UserInfo",
          "name": "",
          "type": "tuple"
        }
      ],
      "stateMutability": "view",
      "type": "function"
    },
    {
      "inputs": [
        {
          "internalType": "address",
          "name": "_user",
          "type": "address"
        }
      ],
      "name": "hasCheckedInToday",
      "outputs": [
        {
          "internalType": "bool",
          "name": "",
          "type": "bool"
        }
      ],
      "stateMutability": "view",
      "type": "function"
    },
    {
      "inputs": [
        {
          "internalType": "address",
          "name": "_user",
          "type": "address"
        }
      ],
      "name": "hasClaimedStarterPack",
      "outputs": [
        {
          "internalType": "bool",
          "name": "",
          "type": "bool"
        }
      ],
      "stateMutability": "view",
      "type": "function"
    },
    {
      "inputs": [
        {
          "internalType": "uint256",
          "name": "_eggId",
          "type": "uint256"
        }
      ],
      "name": "hatchEgg",
      "outputs": [],
      "stateMutability": "nonpayable",
      "type": "function"
    },
    {
      "inputs": [
        {
          "internalType": "uint256",
          "name": "_fishId",
          "type": "uint256"
        }
      ],
      "name": "layEgg",
      "outputs": [],
      "stateMutability": "nonpayable",
      "type": "function"
    },
    {
      "inputs": [
        {
          "internalType": "uint256",
          "name": "_eggId",
          "type": "uint256"
        }
      ],
      "name": "startIncubation",
      "outputs": [],
      "stateMutability": "nonpayable",
      "type": "function"
    },
    {
      "inputs": [
        {
          "internalType": "address",
          "name": "",
          "type": "address"
        }
      ],
      "name": "users",
      "outputs": [
        {
          "internalType": "uint256",
          "name": "lastCheckIn",
          "type": "uint256"
        },
        {
          "internalType": "uint256",
          "name": "currentStreak",
          "type": "uint256"
        },
        {
          "internalType": "uint256",
          "name": "totalCheckIns",
          "type": "uint256"
        },
        {
          "internalType": "uint256",
          "name": "pearlShards",
          "type": "uint256"
        },
        {
          "internalType": "uint256",
          "name": "spawnDust",
          "type": "uint256"
        },
        {
          "internalType": "bool",
          "name": "starterPackClaimed",
          "type": "bool"
        }
      ],
      "stateMutability": "view",
      "type": "function"
    }
  ],
  "bytecode": "0x60806040523480156200001157600080fd5b50604051620020bf380380620020bf83398181016040528101906200003791906200012a565b816000806101000a81548173ffffffffffffffffffffffffffffffffffffffff021916908373ffffffffffffffffffffffffffffffffffffffff16021790555080600160006101000a81548173ffffffffffffffffffffffffffffffffffffffff021916908373ffffffffffffffffffffffffffffffffffffffff160217905550505062000171565b600080fd5b600073ffffffffffffffffffffffffffffffffffffffff82169050919050565b6000620000f282620000c5565b9050919050565b6200010481620000e5565b81146200011057600080fd5b50565b6000815190506200012481620000f9565b92915050565b60008060408385031215620001445762000143620000c0565b5b6000620001548582860162000113565b9250506020620001678582860162000113565b9150509250929050565b611f3e80620001816000396000f3fe608060405234801561001057600080fd5b50600436106101425760003560e01c80638c26210f116100b8578063a87430ba1161007c578063a87430ba1461031d578063bd48346b14610352578063e357157914610370578063e5093fec146103a1578063e845f3ed146103bf578063e86badf4146103db57610142565b80638c26210f1461029d578063959da2cf146102bb5780639cd51d25146102d9578063a3aab162146102e3578063a5fb6449146102ff57610142565b80633504f52b1161010a5780633504f52b146101c75780634efa4eed146101f75780636386c1c7146102015780636bd2f8471461023157806373bc10631461026157806389ec974b1461027f57610142565b8063183ff085146101475780631f8d442a146101515780632385554c1461016f57806329842c6f1461018b5780633316857c146101a9575b600080fd5b61014f61040b565b005b610159610665565b6040516101669190611693565b60405180910390f35b610189600480360381019061018491906116e9565b610689565b005b610193610996565b6040516101a09190611725565b60405180910390f35b6101b161099b565b6040516101be9190611725565b60405180910390f35b6101e160048036038101906101dc919061177e565b6109a0565b6040516101ee91906117c6565b60405180910390f35b6101ff610a57565b005b61021b6004803603810190610216919061177e565b610bb3565b604051610228919061187a565b60405180910390f35b61024b6004803603810190610246919061177e565b610c59565b6040516102589190611725565b60405180910390f35b610269610cfe565b6040516102769190611725565b60405180910390f35b610287610d03565b6040516102949190611725565b60405180910390f35b6102a5610d0a565b6040516102b29190611725565b60405180910390f35b6102c3610d0f565b6040516102d091906118b6565b60405180910390f35b6102e1610d35565b005b6102fd60048036038101906102f891906116e9565b610f70565b005b610307611219565b6040516103149190611725565b60405180910390f35b6103376004803603810190610332919061177e565b61121e565b604051610349969594939291906118d1565b60405180910390f35b61035a611267565b6040516103679190611725565b60405180910390f35b61038a6004803603810190610385919061177e565b61126c565b604051610398929190611932565b60405180910390f35b6103a96112c6565b6040516103b69190611725565b60405180910390f35b6103d960048036038101906103d491906116e9565b6112cb565b005b6103f560048036038101906103f0919061177e565b611560565b60405161040291906117c6565b60405180910390f35b6000600260003373ffffffffffffffffffffffffffffffffffffffff1673ffffffffffffffffffffffffffffffffffffffff16815260200190815260200160002090506000610459426115b9565b9050600061046a83600001546115b9565b90506000620151808361047d919061198a565b90508183116104c1576040517f08c379a00000000000000000000000000000000000000000000000000000000081526004016104b890611a1b565b60405180910390fd5b8082036104e95760018460010160008282546104dd9190611a3b565b925050819055506104f4565b600184600101819055505b42846000018190555060018460020160008282546105129190611a3b565b925050819055503373ffffffffffffffffffffffffffffffffffffffff167f621d62c6c0c4a0c35e883c6b27ad50ecc3093f08bfaf8aa5f58127d351feeb2185600101548660020154604051610569929190611932565b60405180910390a2600784600101541015801561059657506000600785600101546105949190611a9e565b145b1561065f5760018460030160008282546105b09190611a3b565b925050819055503373ffffffffffffffffffffffffffffffffffffffff167f55c05f0e0e03fcd841ebe23a6f16976983441bea034c4e2eb856bfd9786a9aae60016040516105fe9190611725565b60405180910390a23373ffffffffffffffffffffffffffffffffffffffff167f75d98c7f30812056d8a2aedcb20216b7e5d811bfeca28bbb3c4ac98acd9561cf85600301548660040154604051610656929190611932565b60405180910390a25b50505050565b60008054906101000a900473ffffffffffffffffffffffffffffffffffffffff1681565b3373ffffffffffffffffffffffffffffffffffffffff1660008054906101000a900473ffffffffffffffffffffffffffffffffffffffff1673ffffffffffffffffffffffffffffffffffffffff16636352211e836040518263ffffffff1660e01b81526004016106f99190611725565b602060405180830381865afa158015610716573d6000803e3d6000fd5b505050506040513d601f19601f8201168201806040525081019061073a9190611ae4565b73ffffffffffffffffffffffffffffffffffffffff1614610790576040517f08c379a000000000000000000000000000000000000000000000000000000000815260040161078790611b5d565b60405180910390fd5b60008054906101000a900473ffffffffffffffffffffffffffffffffffffffff1673ffffffffffffffffffffffffffffffffffffffff16635149a6cd826040518263ffffffff1660e01b81526004016107e99190611725565b602060405180830381865afa158015610806573d6000803e3d6000fd5b505050506040513d601f19601f8201168201806040525081019061082a9190611ba9565b610869576040517f08c379a000000000000000000000000000000000000000000000000000000000815260040161086090611c22565b60405180910390fd5b60008054906101000a900473ffffffffffffffffffffffffffffffffffffffff1673ffffffffffffffffffffffffffffffffffffffff166342966c68826040518263ffffffff1660e01b81526004016108c29190611725565b600060405180830381600087803b1580156108dc57600080fd5b505af11580156108f0573d6000803e3d6000fd5b50505050600160009054906101000a900473ffffffffffffffffffffffffffffffffffffffff1673ffffffffffffffffffffffffffffffffffffffff16636a627842336040518263ffffffff1660e01b815260040161094f9190611c51565b6020604051808303816000875af115801561096e573d6000803e3d6000fd5b505050506040513d601f19601f820116820180604052508101906109929190611c81565b5050565b600181565b600781565b6000806109ac426115b9565b905060006109fb600260008673ffffffffffffffffffffffffffffffffffffffff1673ffffffffffffffffffffffffffffffffffffffff168152602001908152602001600020600001546115b9565b90508082148015610a4e57506000600260008673ffffffffffffffffffffffffffffffffffffffff1673ffffffffffffffffffffffffffffffffffffffff16815260200190815260200160002060000154115b92505050919050565b6000600260003373ffffffffffffffffffffffffffffffffffffffff1673ffffffffffffffffffffffffffffffffffffffff16815260200190815260200160002090506000600160009054906101000a900473ffffffffffffffffffffffffffffffffffffffff1673ffffffffffffffffffffffffffffffffffffffff1663497570cf336040518263ffffffff1660e01b8152600401610af79190611c51565b6020604051808303816000875af1158015610b16573d6000803e3d6000fd5b505050506040513d601f19601f82011682018060405250810190610b3a9190611c81565b905080826004016000828254610b509190611a3b565b925050819055503373ffffffffffffffffffffffffffffffffffffffff167f75d98c7f30812056d8a2aedcb20216b7e5d811bfeca28bbb3c4ac98acd9561cf83600301548460040154604051610ba7929190611932565b60405180910390a25050565b610bbb6115dc565b600260008373ffffffffffffffffffffffffffffffffffffffff1673ffffffffffffffffffffffffffffffffffffffff1681526020019081526020016000206040518060c001604052908160008201548152602001600182015481526020016002820154815260200160038201548152602001600482015481526020016005820160009054906101000a900460ff1615151515815250509050919050565b6000600160009054906101000a900473ffffffffffffffffffffffffffffffffffffffff1673ffffffffffffffffffffffffffffffffffffffff16636bd2f847836040518263ffffffff1660e01b8152600401610cb69190611c51565b602060405180830381865afa158015610cd3573d6000803e3d6000fd5b505050506040513d601f19601f82011682018060405250810190610cf79190611c81565b9050919050565b600281565b6201518081565b600181565b600160009054906101000a900473ffffffffffffffffffffffffffffffffffffffff1681565b6000600260003373ffffffffffffffffffffffffffffffffffffffff1673ffffffffffffffffffffffffffffffffffffffff16815260200190815260200160002090508060050160009054906101000a900460ff1615610dca576040517f08c379a0000000000000000000000000000000000000000000000000000000008152600401610dc190611cfa565b60405180910390fd5b60018160050160006101000a81548160ff0219169083151502179055506002816003016000828254610dfc9190611a3b565b925050819055506032816004016000828254610e189190611a3b565b9250508190555060008060009054906101000a900473ffffffffffffffffffffffffffffffffffffffff1673ffffffffffffffffffffffffffffffffffffffff16636a627842336040518263ffffffff1660e01b8152600401610e7b9190611c51565b6020604051808303816000875af1158015610e9a573d6000803e3d6000fd5b505050506040513d601f19601f82011682018060405250810190610ebe9190611c81565b90503373ffffffffffffffffffffffffffffffffffffffff167fe9d4cb53237c96b32078c950c999a0909262d1729908b3a94cb7d64eafefb32f8260026032604051610f0c93929190611d1a565b60405180910390a23373ffffffffffffffffffffffffffffffffffffffff167f75d98c7f30812056d8a2aedcb20216b7e5d811bfeca28bbb3c4ac98acd9561cf83600301548460040154604051610f64929190611932565b60405180910390a25050565b6000600260003373ffffffffffffffffffffffffffffffffffffffff1673ffffffffffffffffffffffffffffffffffffffff1681526020019081526020016000209050606481600401541015610ffb576040517f08c379a0000000000000000000000000000000000000000000000000000000008152600401610ff290611d9d565b60405180910390fd5b3373ffffffffffffffffffffffffffffffffffffffff16600160009054906101000a900473ffffffffffffffffffffffffffffffffffffffff1673ffffffffffffffffffffffffffffffffffffffff16636352211e846040518263ffffffff1660e01b815260040161106d9190611725565b602060405180830381865afa15801561108a573d6000803e3d6000fd5b505050506040513d601f19601f820116820180604052508101906110ae9190611ae4565b73ffffffffffffffffffffffffffffffffffffffff1614611104576040517f08c379a00000000000000000000000000000000000000000000000000000000081526004016110fb90611e09565b60405180910390fd5b6064816004016000828254611119919061198a565b9250508190555060008054906101000a900473ffffffffffffffffffffffffffffffffffffffff1673ffffffffffffffffffffffffffffffffffffffff16636a627842336040518263ffffffff1660e01b81526004016111799190611c51565b6020604051808303816000875af1158015611198573d6000803e3d6000fd5b505050506040513d601f19601f820116820180604052508101906111bc9190611c81565b503373ffffffffffffffffffffffffffffffffffffffff167f75d98c7f30812056d8a2aedcb20216b7e5d811bfeca28bbb3c4ac98acd9561cf8260030154836004015460405161120d929190611932565b60405180910390a25050565b603281565b60026020528060005260406000206000915090508060000154908060010154908060020154908060030154908060040154908060050160009054906101000a900460ff16905086565b606481565b6000806000600260008573ffffffffffffffffffffffffffffffffffffffff1673ffffffffffffffffffffffffffffffffffffffff1681526020019081526020016000209050806003015481600401549250925050915091565b600181565b6000600260003373ffffffffffffffffffffffffffffffffffffffff1673ffffffffffffffffffffffffffffffffffffffff1681526020019081526020016000209050600181600301541015611356576040517f08c379a000000000000000000000000000000000000000000000000000000000815260040161134d90611e75565b60405180910390fd5b3373ffffffffffffffffffffffffffffffffffffffff1660008054906101000a900473ffffffffffffffffffffffffffffffffffffffff1673ffffffffffffffffffffffffffffffffffffffff16636352211e846040518263ffffffff1660e01b81526004016113c69190611725565b602060405180830381865afa1580156113e3573d6000803e3d6000fd5b505050506040513d601f19601f820116820180604052508101906114079190611ae4565b73ffffffffffffffffffffffffffffffffffffffff161461145d576040517f08c379a000000000000000000000000000000000000000000000000000000000815260040161145490611b5d565b60405180910390fd5b6001816003016000828254611472919061198a565b9250508190555060008054906101000a900473ffffffffffffffffffffffffffffffffffffffff1673ffffffffffffffffffffffffffffffffffffffff1663e845f3ed836040518263ffffffff1660e01b81526004016114d29190611725565b600060405180830381600087803b1580156114ec57600080fd5b505af1158015611500573d6000803e3d6000fd5b505050503373ffffffffffffffffffffffffffffffffffffffff167f75d98c7f30812056d8a2aedcb20216b7e5d811bfeca28bbb3c4ac98acd9561cf82600301548360040154604051611554929190611932565b60405180910390a25050565b6000600260008373ffffffffffffffffffffffffffffffffffffffff1673ffffffffffffffffffffffffffffffffffffffff16815260200190815260200160002060050160009054906101000a900460ff169050919050565b60006201518080836115cb9190611e95565b6115d59190611ec6565b9050919050565b6040518060c0016040528060008152602001600081526020016000815260200160008152602001600081526020016000151581525090565b600073ffffffffffffffffffffffffffffffffffffffff82169050919050565b6000819050919050565b600061165961165461164f84611614565b611634565b611614565b9050919050565b600061166b8261163e565b9050919050565b600061167d82611660565b9050919050565b61168d81611672565b82525050565b60006020820190506116a86000830184611684565b92915050565b600080fd5b6000819050919050565b6116c6816116b3565b81146116d157600080fd5b50565b6000813590506116e3816116bd565b92915050565b6000602082840312156116ff576116fe6116ae565b5b600061170d848285016116d4565b91505092915050565b61171f816116b3565b82525050565b600060208201905061173a6000830184611716565b92915050565b600061174b82611614565b9050919050565b61175b81611740565b811461176657600080fd5b50565b60008135905061177881611752565b92915050565b600060208284031215611794576117936116ae565b5b60006117a284828501611769565b91505092915050565b60008115159050919050565b6117c0816117ab565b82525050565b60006020820190506117db60008301846117b7565b92915050565b6117ea816116b3565b82525050565b6117f9816117ab565b82525050565b60c08201600082015161181560008501826117e1565b50602082015161182860208501826117e1565b50604082015161183b60408501826117e1565b50606082015161184e60608501826117e1565b50608082015161186160808501826117e1565b5060a082015161187460a08501826117f0565b50505050565b600060c08201905061188f60008301846117ff565b92915050565b60006118a082611660565b9050919050565b6118b081611895565b82525050565b60006020820190506118cb60008301846118a7565b92915050565b600060c0820190506118e66000830189611716565b6118f36020830188611716565b6119006040830187611716565b61190d6060830186611716565b61191a6080830185611716565b61192760a08301846117b7565b979650505050505050565b60006040820190506119476000830185611716565b6119546020830184611716565b9392505050565b7f4e487b7100000000000000000000000000000000000000000000000000000000600052601160045260246000fd5b6000611995826116b3565b91506119a0836116b3565b92508282039050818111156119b8576119b761195b565b5b92915050565b600082825260208201905092915050565b7f416c726561647920636865636b656420696e20746f6461790000000000000000600082015250565b6000611a056018836119be565b9150611a10826119cf565b602082019050919050565b60006020820190508181036000830152611a34816119f8565b9050919050565b6000611a46826116b3565b9150611a51836116b3565b9250828201905080821115611a6957611a6861195b565b5b92915050565b7f4e487b7100000000000000000000000000000000000000000000000000000000600052601260045260246000fd5b6000611aa9826116b3565b9150611ab4836116b3565b925082611ac457611ac3611a6f565b5b828206905092915050565b600081519050611ade81611752565b92915050565b600060208284031215611afa57611af96116ae565b5b6000611b0884828501611acf565b91505092915050565b7f4e6f7420656767206f776e657200000000000000000000000000000000000000600082015250565b6000611b47600d836119be565b9150611b5282611b11565b602082019050919050565b60006020820190508181036000830152611b7681611b3a565b9050919050565b611b86816117ab565b8114611b9157600080fd5b50565b600081519050611ba381611b7d565b92915050565b600060208284031215611bbf57611bbe6116ae565b5b6000611bcd84828501611b94565b91505092915050565b7f43616e6e6f742068617463682079657400000000000000000000000000000000600082015250565b6000611c0c6010836119be565b9150611c1782611bd6565b602082019050919050565b60006020820190508181036000830152611c3b81611bff565b9050919050565b611c4b81611740565b82525050565b6000602082019050611c666000830184611c42565b92915050565b600081519050611c7b816116bd565b92915050565b600060208284031215611c9757611c966116ae565b5b6000611ca584828501611c6c565b91505092915050565b7f53746172746572207061636b20616c726561647920636c61696d656400000000600082015250565b6000611ce4601c836119be565b9150611cef82611cae565b602082019050919050565b60006020820190508181036000830152611d1381611cd7565b9050919050565b6000606082019050611d2f6000830186611716565b611d3c6020830185611716565b611d496040830184611716565b949350505050565b7f4e6f7420656e6f75676820537061776e20447573740000000000000000000000600082015250565b6000611d876015836119be565b9150611d9282611d51565b602082019050919050565b60006020820190508181036000830152611db681611d7a565b9050919050565b7f4e6f742066697368206f776e6572000000000000000000000000000000000000600082015250565b6000611df3600e836119be565b9150611dfe82611dbd565b602082019050919050565b60006020820190508181036000830152611e2281611de6565b9050919050565b7f4e6f7420656e6f75676820506561726c20536861726473000000000000000000600082015250565b6000611e5f6017836119be565b9150611e6a82611e29565b602082019050919050565b60006020820190508181036000830152611e8e81611e52565b9050919050565b6000611ea0826116b3565b9150611eab836116b3565b925082611ebb57611eba611a6f565b5b828204905092915050565b6000611ed1826116b3565b9150611edc836116b3565b9250828202611eea816116b3565b91508282048414831517611f0157611f0061195b565b5b509291505056fea2646970667358221220acca0e8ed05d5a428606656a9f6fb47bb32f97c228c84ee1c69ad131a819191864736f6c63430008180033",
  "linkReferences": {},
  "deployedLinkReferences": {}
}