{
  "address": "0x68a298f481353864Fc3bD2C8fbf1027D509B321D",
  "abi": [
    {
      "anonymous": false,
      "inputs": [
        {
          "indexed": true,
          "internalType": "address",
          "name": "user",
          "type": "address"
        },
        {
          "indexed": false,
          "internalType": "uint256",
          "name": "timestamp",
          "type": "uint256"
        },
        {
          "indexed": false,
          "internalType": "uint256",
          "name": "currentStreak",
          "type": "uint256"
        },
        {
          "indexed": false,
          "internalType": "uint256",
          "name": "bestStreak",
          "type": "uint256"
        }
      ],
      "name": "CheckedIn",
      "type": "event"
    },
    {
      "inputs": [],
      "name": "checkIn",
      "outputs": [],
      "stateMutability": "nonpayable",
      "type": "function"
    },
    {
      "inputs": [
        {
          "internalType": "address",
          "name": "user",
          "type": "address"
        }
      ],
      "name": "getUserInfo",
      "outputs": [
        {
          "components": [
            {
              "internalType": "uint256",
              "name": "lastCheckIn",
              "type": "uint256"
            },
            {
              "internalType": "uint256",
              "name": "totalCheckIns",
              "type": "uint256"
            },
            {
              "internalType": "uint256",
              "name": "currentMonthStreak",
              "type": "uint256"
            },
            {
              "internalType": "uint256",
              "name": "bestMonthStreak",
              "type": "uint256"
            },
            {
              "internalType": "uint256",
              "name": "currentMonthStart",
              "type": "uint256"
            },
            {
              "internalType": "uint256",
              "name": "bestMonthTimestamp",
              "type": "uint256"
            }
          ],
          "internalType": "struct DailyCheckIn.UserInfo",
          "name": "",
          "type": "tuple"
        }
      ],
      "stateMutability": "view",
      "type": "function"
    },
    {
      "inputs": [
        {
          "internalType": "address",
          "name": "user",
          "type": "address"
        }
      ],
      "name": "hasCheckedInToday",
      "outputs": [
        {
          "internalType": "bool",
          "name": "",
          "type": "bool"
        }
      ],
      "stateMutability": "view",
      "type": "function"
    },
    {
      "inputs": [
        {
          "internalType": "address",
          "name": "",
          "type": "address"
        }
      ],
      "name": "users",
      "outputs": [
        {
          "internalType": "uint256",
          "name": "lastCheckIn",
          "type": "uint256"
        },
        {
          "internalType": "uint256",
          "name": "totalCheckIns",
          "type": "uint256"
        },
        {
          "internalType": "uint256",
          "name": "currentMonthStreak",
          "type": "uint256"
        },
        {
          "internalType": "uint256",
          "name": "bestMonthStreak",
          "type": "uint256"
        },
        {
          "internalType": "uint256",
          "name": "currentMonthStart",
          "type": "uint256"
        },
        {
          "internalType": "uint256",
          "name": "bestMonthTimestamp",
          "type": "uint256"
        }
      ],
      "stateMutability": "view",
      "type": "function"
    }
  ],
  "transactionHash": "0x4970de724afba978ef7160ac04c2544d3373c3343ffb1f82758ea4db480103e7",
  "args": [],
  "numDeployments": 1,
  "solcInputHash": "5c3d8005564f03d32ab0855e47e264c9",
  "bytecode": "0x608060405234801561001057600080fd5b506108c2806100206000396000f3fe608060405234801561001057600080fd5b506004361061004c5760003560e01c8063183ff085146100515780633504f52b1461005b5780636386c1c71461008b578063a87430ba146100bb575b600080fd5b6100596100f0565b005b61007560048036038101906100709190610551565b6102c7565b6040516100829190610599565b60405180910390f35b6100a560048036038101906100a09190610551565b61037c565b6040516100b29190610648565b60405180910390f35b6100d560048036038101906100d09190610551565b610410565b6040516100e796959493929190610672565b60405180910390f35b600033905060008060008373ffffffffffffffffffffffffffffffffffffffff1673ffffffffffffffffffffffffffffffffffffffff1681526020019081526020016000209050600042905060006101478261044c565b90506000610158846000015461044c565b905080821161019c576040517f08c379a000000000000000000000000000000000000000000000000000000000815260040161019390610730565b60405180910390fd5b60006101a78461046f565b905080856004015410156101f8578460030154856002015411156101e05784600201548560030181905550846004015485600501819055505b60018560020181905550808560040181905550610215565b600185600201600082825461020d919061077f565b925050819055505b8385600001819055506001856001016000828254610233919061077f565b925050819055508460030154856002015411156102655784600201548560030181905550846004015485600501819055505b8573ffffffffffffffffffffffffffffffffffffffff167f7e4c1be4a7f9736334ae1a21a54b75fe0b8ac49d1c72b89a21ec4802d4f6fabb85876002015488600301546040516102b7939291906107b3565b60405180910390a2505050505050565b6000806102d34261044c565b905060006103216000808673ffffffffffffffffffffffffffffffffffffffff1673ffffffffffffffffffffffffffffffffffffffff1681526020019081526020016000206000015461044c565b90508082148015610373575060008060008673ffffffffffffffffffffffffffffffffffffffff1673ffffffffffffffffffffffffffffffffffffffff16815260200190815260200160002060000154115b92505050919050565b6103846104b8565b6000808373ffffffffffffffffffffffffffffffffffffffff1673ffffffffffffffffffffffffffffffffffffffff1681526020019081526020016000206040518060c001604052908160008201548152602001600182015481526020016002820154815260200160038201548152602001600482015481526020016005820154815250509050919050565b60006020528060005260406000206000915090508060000154908060010154908060020154908060030154908060040154908060050154905086565b600062015180808361045e9190610819565b610468919061084a565b9050919050565b60008062015180836104819190610819565b90506000601e826104929190610819565b905062015180601e826104a5919061084a565b6104af919061084a565b92505050919050565b6040518060c001604052806000815260200160008152602001600081526020016000815260200160008152602001600081525090565b600080fd5b600073ffffffffffffffffffffffffffffffffffffffff82169050919050565b600061051e826104f3565b9050919050565b61052e81610513565b811461053957600080fd5b50565b60008135905061054b81610525565b92915050565b600060208284031215610567576105666104ee565b5b60006105758482850161053c565b91505092915050565b60008115159050919050565b6105938161057e565b82525050565b60006020820190506105ae600083018461058a565b92915050565b6000819050919050565b6105c7816105b4565b82525050565b60c0820160008201516105e360008501826105be565b5060208201516105f660208501826105be565b50604082015161060960408501826105be565b50606082015161061c60608501826105be565b50608082015161062f60808501826105be565b5060a082015161064260a08501826105be565b50505050565b600060c08201905061065d60008301846105cd565b92915050565b61066c816105b4565b82525050565b600060c0820190506106876000830189610663565b6106946020830188610663565b6106a16040830187610663565b6106ae6060830186610663565b6106bb6080830185610663565b6106c860a0830184610663565b979650505050505050565b600082825260208201905092915050565b7f416c726561647920636865636b656420696e20746f6461790000000000000000600082015250565b600061071a6018836106d3565b9150610725826106e4565b602082019050919050565b600060208201905081810360008301526107498161070d565b9050919050565b7f4e487b7100000000000000000000000000000000000000000000000000000000600052601160045260246000fd5b600061078a826105b4565b9150610795836105b4565b92508282019050808211156107ad576107ac610750565b5b92915050565b60006060820190506107c86000830186610663565b6107d56020830185610663565b6107e26040830184610663565b949350505050565b7f4e487b7100000000000000000000000000000000000000000000000000000000600052601260045260246000fd5b6000610824826105b4565b915061082f836105b4565b92508261083f5761083e6107ea565b5b828204905092915050565b6000610855826105b4565b9150610860836105b4565b925082820261086e816105b4565b9150828204841483151761088557610884610750565b5b509291505056fea264697066735822122022522bc30951966efe2bbf2bb62b4ca9a3c289334327e0c4962a95537faac6f064736f6c63430008180033",
  "devdoc": {
    "details": "Tracks daily check-ins, current month streak, and best month streak",
    "kind": "dev",
    "methods": {
      "checkIn()": {
        "details": "Can only check in once per day. Resets streak if new month started."
      },
      "getUserInfo(address)": {
        "params": {
          "user": "Address of the user"
        },
        "returns": {
          "_0": "UserInfo struct with all user data"
        }
      },
      "hasCheckedInToday(address)": {
        "params": {
          "user": "Address of the user"
        },
        "returns": {
          "_0": "true if checked in today, false otherwise"
        }
      }
    },
    "title": "DailyCheckIn",
    "version": 1
  },
  "userdoc": {
    "kind": "user",
    "methods": {
      "checkIn()": {
        "notice": "Check in for today"
      },
      "getUserInfo(address)": {
        "notice": "Get user information"
      },
      "hasCheckedInToday(address)": {
        "notice": "Check if user has checked in today"
      }
    },
    "notice": "Contract for daily check-ins with BM (Best Month) streak tracking",
    "version": 1
  },
  "storageLayout": {
    "storage": [
      {
        "astId": 20,
        "contract": "contracts/DailyCheckIn.sol:DailyCheckIn",
        "label": "users",
        "offset": 0,
        "slot": "0",
        "type": "t_mapping(t_address,t_struct(UserInfo)15_storage)"
      }
    ],
    "types": {
      "t_address": {
        "encoding": "inplace",
        "label": "address",
        "numberOfBytes": "20"
      },
      "t_mapping(t_address,t_struct(UserInfo)15_storage)": {
        "encoding": "mapping",
        "key": "t_address",
        "label": "mapping(address => struct DailyCheckIn.UserInfo)",
        "numberOfBytes": "32",
        "value": "t_struct(UserInfo)15_storage"
      },
      "t_struct(UserInfo)15_storage": {
        "encoding": "inplace",
        "label": "struct DailyCheckIn.UserInfo",
        "members": [
          {
            "astId": 4,
            "contract": "contracts/DailyCheckIn.sol:DailyCheckIn",
            "label": "lastCheckIn",
            "offset": 0,
            "slot": "0",
            "type": "t_uint256"
          },
          {
            "astId": 6,
            "contract": "contracts/DailyCheckIn.sol:DailyCheckIn",
            "label": "totalCheckIns",
            "offset": 0,
            "slot": "1",
            "type": "t_uint256"
          },
          {
            "astId": 8,
            "contract": "contracts/DailyCheckIn.sol:DailyCheckIn",
            "label": "currentMonthStreak",
            "offset": 0,
            "slot": "2",
            "type": "t_uint256"
          },
          {
            "astId": 10,
            "contract": "contracts/DailyCheckIn.sol:DailyCheckIn",
            "label": "bestMonthStreak",
            "offset": 0,
            "slot": "3",
            "type": "t_uint256"
          },
          {
            "astId": 12,
            "contract": "contracts/DailyCheckIn.sol:DailyCheckIn",
            "label": "currentMonthStart",
            "offset": 0,
            "slot": "4",
            "type": "t_uint256"
          },
          {
            "astId": 14,
            "contract": "contracts/DailyCheckIn.sol:DailyCheckIn",
            "label": "bestMonthTimestamp",
            "offset": 0,
            "slot": "5",
            "type": "t_uint256"
          }
        ],
        "numberOfBytes": "192"
      },
      "t_uint256": {
        "encoding": "inplace",
        "label": "uint256",
        "numberOfBytes": "32"
      }
    }
  }
}