{
  "address": "0x73Ac505974bC06499f8A49c552f1eFE3E2Bc42A0",
  "abi": [
    {
      "inputs": [],
      "stateMutability": "nonpayable",
      "type": "constructor"
    },
    {
      "inputs": [],
      "name": "ERC721EnumerableForbiddenBatchMint",
      "type": "error"
    },
    {
      "inputs": [
        {
          "internalType": "address",
          "name": "sender",
          "type": "address"
        },
        {
          "internalType": "uint256",
          "name": "tokenId",
          "type": "uint256"
        },
        {
          "internalType": "address",
          "name": "owner",
          "type": "address"
        }
      ],
      "name": "ERC721IncorrectOwner",
      "type": "error"
    },
    {
      "inputs": [
        {
          "internalType": "address",
          "name": "operator",
          "type": "address"
        },
        {
          "internalType": "uint256",
          "name": "tokenId",
          "type": "uint256"
        }
      ],
      "name": "ERC721InsufficientApproval",
      "type": "error"
    },
    {
      "inputs": [
        {
          "internalType": "address",
          "name": "approver",
          "type": "address"
        }
      ],
      "name": "ERC721InvalidApprover",
      "type": "error"
    },
    {
      "inputs": [
        {
          "internalType": "address",
          "name": "operator",
          "type": "address"
        }
      ],
      "name": "ERC721InvalidOperator",
      "type": "error"
    },
    {
      "inputs": [
        {
          "internalType": "address",
          "name": "owner",
          "type": "address"
        }
      ],
      "name": "ERC721InvalidOwner",
      "type": "error"
    },
    {
      "inputs": [
        {
          "internalType": "address",
          "name": "receiver",
          "type": "address"
        }
      ],
      "name": "ERC721InvalidReceiver",
      "type": "error"
    },
    {
      "inputs": [
        {
          "internalType": "address",
          "name": "sender",
          "type": "address"
        }
      ],
      "name": "ERC721InvalidSender",
      "type": "error"
    },
    {
      "inputs": [
        {
          "internalType": "uint256",
          "name": "tokenId",
          "type": "uint256"
        }
      ],
      "name": "ERC721NonexistentToken",
      "type": "error"
    },
    {
      "inputs": [
        {
          "internalType": "address",
          "name": "owner",
          "type": "address"
        },
        {
          "internalType": "uint256",
          "name": "index",
          "type": "uint256"
        }
      ],
      "name": "ERC721OutOfBoundsIndex",
      "type": "error"
    },
    {
      "inputs": [
        {
          "internalType": "address",
          "name": "owner",
          "type": "address"
        }
      ],
      "name": "OwnableInvalidOwner",
      "type": "error"
    },
    {
      "inputs": [
        {
          "internalType": "address",
          "name": "account",
          "type": "address"
        }
      ],
      "name": "OwnableUnauthorizedAccount",
      "type": "error"
    },
    {
      "anonymous": false,
      "inputs": [
        {
          "indexed": true,
          "internalType": "address",
          "name": "owner",
          "type": "address"
        },
        {
          "indexed": true,
          "internalType": "address",
          "name": "approved",
          "type": "address"
        },
        {
          "indexed": true,
          "internalType": "uint256",
          "name": "tokenId",
          "type": "uint256"
        }
      ],
      "name": "Approval",
      "type": "event"
    },
    {
      "anonymous": false,
      "inputs": [
        {
          "indexed": true,
          "internalType": "address",
          "name": "owner",
          "type": "address"
        },
        {
          "indexed": true,
          "internalType": "address",
          "name": "operator",
          "type": "address"
        },
        {
          "indexed": false,
          "internalType": "bool",
          "name": "approved",
          "type": "bool"
        }
      ],
      "name": "ApprovalForAll",
      "type": "event"
    },
    {
      "anonymous": false,
      "inputs": [
        {
          "indexed": true,
          "internalType": "address",
          "name": "owner",
          "type": "address"
        },
        {
          "indexed": true,
          "internalType": "uint256",
          "name": "tokenId",
          "type": "uint256"
        },
        {
          "indexed": false,
          "internalType": "enum FishNFT.Rarity",
          "name": "rarity",
          "type": "uint8"
        }
      ],
      "name": "FishMinted",
      "type": "event"
    },
    {
      "anonymous": false,
      "inputs": [
        {
          "indexed": true,
          "internalType": "address",
          "name": "previousOwner",
          "type": "address"
        },
        {
          "indexed": true,
          "internalType": "address",
          "name": "newOwner",
          "type": "address"
        }
      ],
      "name": "OwnershipTransferred",
      "type": "event"
    },
    {
      "anonymous": false,
      "inputs": [
        {
          "indexed": true,
          "internalType": "address",
          "name": "owner",
          "type": "address"
        },
        {
          "indexed": true,
          "internalType": "uint256",
          "name": "tokenId",
          "type": "uint256"
        },
        {
          "indexed": false,
          "internalType": "uint256",
          "name": "amount",
          "type": "uint256"
        }
      ],
      "name": "SpawnDustCollected",
      "type": "event"
    },
    {
      "anonymous": false,
      "inputs": [
        {
          "indexed": true,
          "internalType": "address",
          "name": "from",
          "type": "address"
        },
        {
          "indexed": true,
          "internalType": "address",
          "name": "to",
          "type": "address"
        },
        {
          "indexed": true,
          "internalType": "uint256",
          "name": "tokenId",
          "type": "uint256"
        }
      ],
      "name": "Transfer",
      "type": "event"
    },
    {
      "inputs": [],
      "name": "COMMON_CHANCE",
      "outputs": [
        {
          "internalType": "uint256",
          "name": "",
          "type": "uint256"
        }
      ],
      "stateMutability": "view",
      "type": "function"
    },
    {
      "inputs": [],
      "name": "COMMON_DUST_PER_DAY",
      "outputs": [
        {
          "internalType": "uint256",
          "name": "",
          "type": "uint256"
        }
      ],
      "stateMutability": "view",
      "type": "function"
    },
    {
      "inputs": [],
      "name": "EPIC_CHANCE",
      "outputs": [
        {
          "internalType": "uint256",
          "name": "",
          "type": "uint256"
        }
      ],
      "stateMutability": "view",
      "type": "function"
    },
    {
      "inputs": [],
      "name": "EPIC_DUST_PER_DAY",
      "outputs": [
        {
          "internalType": "uint256",
          "name": "",
          "type": "uint256"
        }
      ],
      "stateMutability": "view",
      "type": "function"
    },
    {
      "inputs": [],
      "name": "LEGENDARY_CHANCE",
      "outputs": [
        {
          "internalType": "uint256",
          "name": "",
          "type": "uint256"
        }
      ],
      "stateMutability": "view",
      "type": "function"
    },
    {
      "inputs": [],
      "name": "LEGENDARY_DUST_PER_DAY",
      "outputs": [
        {
          "internalType": "uint256",
          "name": "",
          "type": "uint256"
        }
      ],
      "stateMutability": "view",
      "type": "function"
    },
    {
      "inputs": [],
      "name": "MYTHIC_CHANCE",
      "outputs": [
        {
          "internalType": "uint256",
          "name": "",
          "type": "uint256"
        }
      ],
      "stateMutability": "view",
      "type": "function"
    },
    {
      "inputs": [],
      "name": "MYTHIC_DUST_PER_DAY",
      "outputs": [
        {
          "internalType": "uint256",
          "name": "",
          "type": "uint256"
        }
      ],
      "stateMutability": "view",
      "type": "function"
    },
    {
      "inputs": [],
      "name": "RARE_CHANCE",
      "outputs": [
        {
          "internalType": "uint256",
          "name": "",
          "type": "uint256"
        }
      ],
      "stateMutability": "view",
      "type": "function"
    },
    {
      "inputs": [],
      "name": "RARE_DUST_PER_DAY",
      "outputs": [
        {
          "internalType": "uint256",
          "name": "",
          "type": "uint256"
        }
      ],
      "stateMutability": "view",
      "type": "function"
    },
    {
      "inputs": [
        {
          "internalType": "address",
          "name": "to",
          "type": "address"
        },
        {
          "internalType": "uint256",
          "name": "tokenId",
          "type": "uint256"
        }
      ],
      "name": "approve",
      "outputs": [],
      "stateMutability": "nonpayable",
      "type": "function"
    },
    {
      "inputs": [
        {
          "internalType": "address",
          "name": "owner",
          "type": "address"
        }
      ],
      "name": "balanceOf",
      "outputs": [
        {
          "internalType": "uint256",
          "name": "",
          "type": "uint256"
        }
      ],
      "stateMutability": "view",
      "type": "function"
    },
    {
      "inputs": [
        {
          "internalType": "address",
          "name": "_owner",
          "type": "address"
        }
      ],
      "name": "collectAllSpawnDust",
      "outputs": [
        {
          "internalType": "uint256",
          "name": "",
          "type": "uint256"
        }
      ],
      "stateMutability": "nonpayable",
      "type": "function"
    },
    {
      "inputs": [
        {
          "internalType": "uint256",
          "name": "",
          "type": "uint256"
        }
      ],
      "name": "fish",
      "outputs": [
        {
          "internalType": "enum FishNFT.Rarity",
          "name": "rarity",
          "type": "uint8"
        },
        {
          "internalType": "uint256",
          "name": "mintedAt",
          "type": "uint256"
        },
        {
          "internalType": "uint256",
          "name": "lastDustCollectedAt",
          "type": "uint256"
        }
      ],
      "stateMutability": "view",
      "type": "function"
    },
    {
      "inputs": [],
      "name": "gameContract",
      "outputs": [
        {
          "internalType": "address",
          "name": "",
          "type": "address"
        }
      ],
      "stateMutability": "view",
      "type": "function"
    },
    {
      "inputs": [
        {
          "internalType": "uint256",
          "name": "tokenId",
          "type": "uint256"
        }
      ],
      "name": "getApproved",
      "outputs": [
        {
          "internalType": "address",
          "name": "",
          "type": "address"
        }
      ],
      "stateMutability": "view",
      "type": "function"
    },
    {
      "inputs": [
        {
          "internalType": "enum FishNFT.Rarity",
          "name": "_rarity",
          "type": "uint8"
        }
      ],
      "name": "getDustPerDay",
      "outputs": [
        {
          "internalType": "uint256",
          "name": "",
          "type": "uint256"
        }
      ],
      "stateMutability": "pure",
      "type": "function"
    },
    {
      "inputs": [
        {
          "internalType": "address",
          "name": "_owner",
          "type": "address"
        }
      ],
      "name": "getFishByOwner",
      "outputs": [
        {
          "internalType": "uint256[]",
          "name": "",
          "type": "uint256[]"
        }
      ],
      "stateMutability": "view",
      "type": "function"
    },
    {
      "inputs": [
        {
          "internalType": "uint256",
          "name": "_tokenId",
          "type": "uint256"
        }
      ],
      "name": "getFishInfo",
      "outputs": [
        {
          "components": [
            {
              "internalType": "enum FishNFT.Rarity",
              "name": "rarity",
              "type": "uint8"
            },
            {
              "internalType": "uint256",
              "name": "mintedAt",
              "type": "uint256"
            },
            {
              "internalType": "uint256",
              "name": "lastDustCollectedAt",
              "type": "uint256"
            }
          ],
          "internalType": "struct FishNFT.FishInfo",
          "name": "",
          "type": "tuple"
        }
      ],
      "stateMutability": "view",
      "type": "function"
    },
    {
      "inputs": [
        {
          "internalType": "uint256",
          "name": "_tokenId",
          "type": "uint256"
        }
      ],
      "name": "getPendingDustForFish",
      "outputs": [
        {
          "internalType": "uint256",
          "name": "",
          "type": "uint256"
        }
      ],
      "stateMutability": "view",
      "type": "function"
    },
    {
      "inputs": [
        {
          "internalType": "address",
          "name": "_owner",
          "type": "address"
        }
      ],
      "name": "getPendingSpawnDust",
      "outputs": [
        {
          "internalType": "uint256",
          "name": "",
          "type": "uint256"
        }
      ],
      "stateMutability": "view",
      "type": "function"
    },
    {
      "inputs": [
        {
          "internalType": "address",
          "name": "owner",
          "type": "address"
        },
        {
          "internalType": "address",
          "name": "operator",
          "type": "address"
        }
      ],
      "name": "isApprovedForAll",
      "outputs": [
        {
          "internalType": "bool",
          "name": "",
          "type": "bool"
        }
      ],
      "stateMutability": "view",
      "type": "function"
    },
    {
      "inputs": [
        {
          "internalType": "address",
          "name": "_to",
          "type": "address"
        }
      ],
      "name": "mint",
      "outputs": [
        {
          "internalType": "uint256",
          "name": "",
          "type": "uint256"
        }
      ],
      "stateMutability": "nonpayable",
      "type": "function"
    },
    {
      "inputs": [],
      "name": "name",
      "outputs": [
        {
          "internalType": "string",
          "name": "",
          "type": "string"
        }
      ],
      "stateMutability": "view",
      "type": "function"
    },
    {
      "inputs": [],
      "name": "owner",
      "outputs": [
        {
          "internalType": "address",
          "name": "",
          "type": "address"
        }
      ],
      "stateMutability": "view",
      "type": "function"
    },
    {
      "inputs": [
        {
          "internalType": "uint256",
          "name": "tokenId",
          "type": "uint256"
        }
      ],
      "name": "ownerOf",
      "outputs": [
        {
          "internalType": "address",
          "name": "",
          "type": "address"
        }
      ],
      "stateMutability": "view",
      "type": "function"
    },
    {
      "inputs": [],
      "name": "renounceOwnership",
      "outputs": [],
      "stateMutability": "nonpayable",
      "type": "function"
    },
    {
      "inputs": [
        {
          "internalType": "address",
          "name": "from",
          "type": "address"
        },
        {
          "internalType": "address",
          "name": "to",
          "type": "address"
        },
        {
          "internalType": "uint256",
          "name": "tokenId",
          "type": "uint256"
        }
      ],
      "name": "safeTransferFrom",
      "outputs": [],
      "stateMutability": "nonpayable",
      "type": "function"
    },
    {
      "inputs": [
        {
          "internalType": "address",
          "name": "from",
          "type": "address"
        },
        {
          "internalType": "address",
          "name": "to",
          "type": "address"
        },
        {
          "internalType": "uint256",
          "name": "tokenId",
          "type": "uint256"
        },
        {
          "internalType": "bytes",
          "name": "data",
          "type": "bytes"
        }
      ],
      "name": "safeTransferFrom",
      "outputs": [],
      "stateMutability": "nonpayable",
      "type": "function"
    },
    {
      "inputs": [
        {
          "internalType": "address",
          "name": "operator",
          "type": "address"
        },
        {
          "internalType": "bool",
          "name": "approved",
          "type": "bool"
        }
      ],
      "name": "setApprovalForAll",
      "outputs": [],
      "stateMutability": "nonpayable",
      "type": "function"
    },
    {
      "inputs": [
        {
          "internalType": "address",
          "name": "_gameContract",
          "type": "address"
        }
      ],
      "name": "setGameContract",
      "outputs": [],
      "stateMutability": "nonpayable",
      "type": "function"
    },
    {
      "inputs": [
        {
          "internalType": "bytes4",
          "name": "interfaceId",
          "type": "bytes4"
        }
      ],
      "name": "supportsInterface",
      "outputs": [
        {
          "internalType": "bool",
          "name": "",
          "type": "bool"
        }
      ],
      "stateMutability": "view",
      "type": "function"
    },
    {
      "inputs": [],
      "name": "symbol",
      "outputs": [
        {
          "internalType": "string",
          "name": "",
          "type": "string"
        }
      ],
      "stateMutability": "view",
      "type": "function"
    },
    {
      "inputs": [
        {
          "internalType": "uint256",
          "name": "index",
          "type": "uint256"
        }
      ],
      "name": "tokenByIndex",
      "outputs": [
        {
          "internalType": "uint256",
          "name": "",
          "type": "uint256"
        }
      ],
      "stateMutability": "view",
      "type": "function"
    },
    {
      "inputs": [
        {
          "internalType": "address",
          "name": "owner",
          "type": "address"
        },
        {
          "internalType": "uint256",
          "name": "index",
          "type": "uint256"
        }
      ],
      "name": "tokenOfOwnerByIndex",
      "outputs": [
        {
          "internalType": "uint256",
          "name": "",
          "type": "uint256"
        }
      ],
      "stateMutability": "view",
      "type": "function"
    },
    {
      "inputs": [
        {
          "internalType": "uint256",
          "name": "tokenId",
          "type": "uint256"
        }
      ],
      "name": "tokenURI",
      "outputs": [
        {
          "internalType": "string",
          "name": "",
          "type": "string"
        }
      ],
      "stateMutability": "view",
      "type": "function"
    },
    {
      "inputs": [],
      "name": "totalSupply",
      "outputs": [
        {
          "internalType": "uint256",
          "name": "",
          "type": "uint256"
        }
      ],
      "stateMutability": "view",
      "type": "function"
    },
    {
      "inputs": [
        {
          "internalType": "address",
          "name": "from",
          "type": "address"
        },
        {
          "internalType": "address",
          "name": "to",
          "type": "address"
        },
        {
          "internalType": "uint256",
          "name": "tokenId",
          "type": "uint256"
        }
      ],
      "name": "transferFrom",
      "outputs": [],
      "stateMutability": "nonpayable",
      "type": "function"
    },
    {
      "inputs": [
        {
          "internalType": "address",
          "name": "newOwner",
          "type": "address"
        }
      ],
      "name": "transferOwnership",
      "outputs": [],
      "stateMutability": "nonpayable",
      "type": "function"
    }
  ],
  "transactionHash": "0xad0e3dd209189e258e0bf95ab9b131044e14d52e6e158e70f96c3b5e4d678192",
  "args": [],
  "numDeployments": 1,
  "solcInputHash": "3e38d7545bb7876f62e745d035c73246",
  "bytecode": "0x60806040523480156200001157600080fd5b50336040518060400160405280600c81526020017f46727952656566204669736800000000000000000000000000000000000000008152506040518060400160405280600781526020017f4652594649534800000000000000000000000000000000000000000000000000815250816000908162000090919062000472565b508060019081620000a2919062000472565b505050600073ffffffffffffffffffffffffffffffffffffffff168173ffffffffffffffffffffffffffffffffffffffff16036200011a5760006040517f1e4fbdf70000000000000000000000000000000000000000000000000000000081526004016200011191906200059e565b60405180910390fd5b6200012b816200013260201b60201c565b50620005bb565b6000600a60009054906101000a900473ffffffffffffffffffffffffffffffffffffffff16905081600a60006101000a81548173ffffffffffffffffffffffffffffffffffffffff021916908373ffffffffffffffffffffffffffffffffffffffff1602179055508173ffffffffffffffffffffffffffffffffffffffff168173ffffffffffffffffffffffffffffffffffffffff167f8be0079c531659141344cd1fd0a4f28419497f9722a3daafe3b4186f6b6457e060405160405180910390a35050565b600081519050919050565b7f4e487b7100000000000000000000000000000000000000000000000000000000600052604160045260246000fd5b7f4e487b7100000000000000000000000000000000000000000000000000000000600052602260045260246000fd5b600060028204905060018216806200027a57607f821691505b60208210810362000290576200028f62000232565b5b50919050565b60008190508160005260206000209050919050565b60006020601f8301049050919050565b600082821b905092915050565b600060088302620002fa7fffffffffffffffffffffffffffffffffffffffffffffffffffffffffffffffff82620002bb565b620003068683620002bb565b95508019841693508086168417925050509392505050565b6000819050919050565b6000819050919050565b6000620003536200034d62000347846200031e565b62000328565b6200031e565b9050919050565b6000819050919050565b6200036f8362000332565b620003876200037e826200035a565b848454620002c8565b825550505050565b600090565b6200039e6200038f565b620003ab81848462000364565b505050565b5b81811015620003d357620003c760008262000394565b600181019050620003b1565b5050565b601f8211156200042257620003ec8162000296565b620003f784620002ab565b8101602085101562000407578190505b6200041f6200041685620002ab565b830182620003b0565b50505b505050565b600082821c905092915050565b6000620004476000198460080262000427565b1980831691505092915050565b600062000462838362000434565b9150826002028217905092915050565b6200047d82620001f8565b67ffffffffffffffff81111562000499576200049862000203565b5b620004a5825462000261565b620004b2828285620003d7565b600060209050601f831160018114620004ea5760008415620004d5578287015190505b620004e1858262000454565b86555062000551565b601f198416620004fa8662000296565b60005b828110156200052457848901518255600182019150602085019450602081019050620004fd565b8683101562000544578489015162000540601f89168262000434565b8355505b6001600288020188555050505b505050505050565b600073ffffffffffffffffffffffffffffffffffffffff82169050919050565b6000620005868262000559565b9050919050565b620005988162000579565b82525050565b6000602082019050620005b560008301846200058d565b92915050565b61391280620005cb6000396000f3fe608060405234801561001057600080fd5b506004361061023d5760003560e01c80636bd2f8471161013b578063b88d4fde116100b8578063e2450a981161007c578063e2450a9814610708578063e985e9c514610738578063f0824aff14610768578063f155cd8c14610786578063f2fde38b146107b85761023d565b8063b88d4fde14610662578063be43b2e31461067e578063c7ce831c1461069c578063c87b56dd146106ba578063d3f33009146106ea5761023d565b80638da5cb5b116100ff5780638da5cb5b146105ce5780639498624f146105ec57806395d89b411461060a578063a22cb46514610628578063ac64a8de146106445761023d565b80636bd2f8471461050457806370a0823114610534578063715018a6146105645780637f727d861461056e57806389b9d41b1461059e5761023d565b80632f745c59116101c95780634f6ccce71161018d5780634f6ccce7146104385780635a7bd306146104685780635c7cbeb7146104865780636352211e146104a45780636a627842146104d45761023d565b80632f745c591461037057806334b0f3a3146103a0578063405ebd4d146103d057806342842e0e146103ec578063497570cf146104085761023d565b80631263578b116102105780631263578b146102dc57806318160ddd146102fa578063233085701461031857806323b872dd146103365780632c389929146103525761023d565b806301ffc9a71461024257806306fdde0314610272578063081812fc14610290578063095ea7b3146102c0575b600080fd5b61025c60048036038101906102579190612b74565b6107d4565b6040516102699190612bbc565b60405180910390f35b61027a6107e6565b6040516102879190612c67565b60405180910390f35b6102aa60048036038101906102a59190612cbf565b610878565b6040516102b79190612d2d565b60405180910390f35b6102da60048036038101906102d59190612d74565b610894565b005b6102e46108aa565b6040516102f19190612dc3565b60405180910390f35b6103026108af565b60405161030f9190612dc3565b60405180910390f35b6103206108bc565b60405161032d9190612dc3565b60405180910390f35b610350600480360381019061034b9190612dde565b6108c1565b005b61035a6109c3565b6040516103679190612dc3565b60405180910390f35b61038a60048036038101906103859190612d74565b6109c8565b6040516103979190612dc3565b60405180910390f35b6103ba60048036038101906103b59190612e56565b610a71565b6040516103c79190612dc3565b60405180910390f35b6103ea60048036038101906103e59190612e83565b610b84565b005b61040660048036038101906104019190612dde565b610bd0565b005b610422600480360381019061041d9190612e83565b610bf0565b60405161042f9190612dc3565b60405180910390f35b610452600480360381019061044d9190612cbf565b610d52565b60405161045f9190612dc3565b60405180910390f35b610470610dc8565b60405161047d9190612dc3565b60405180910390f35b61048e610dcd565b60405161049b9190612dc3565b60405180910390f35b6104be60048036038101906104b99190612cbf565b610dd2565b6040516104cb9190612d2d565b60405180910390f35b6104ee60048036038101906104e99190612e83565b610de4565b6040516104fb9190612dc3565b60405180910390f35b61051e60048036038101906105199190612e83565b610f89565b60405161052b9190612dc3565b60405180910390f35b61054e60048036038101906105499190612e83565b610fe5565b60405161055b9190612dc3565b60405180910390f35b61056c61109f565b005b61058860048036038101906105839190612cbf565b6110b3565b6040516105959190612dc3565b60405180910390f35b6105b860048036038101906105b39190612e83565b61116a565b6040516105c59190612f6e565b60405180910390f35b6105d6611212565b6040516105e39190612d2d565b60405180910390f35b6105f461123c565b6040516106019190612dc3565b60405180910390f35b610612611241565b60405161061f9190612c67565b60405180910390f35b610642600480360381019061063d9190612fbc565b6112d3565b005b61064c6112e9565b6040516106599190612dc3565b60405180910390f35b61067c60048036038101906106779190613131565b6112ee565b005b610686611313565b6040516106939190612dc3565b60405180910390f35b6106a4611318565b6040516106b19190612dc3565b60405180910390f35b6106d460048036038101906106cf9190612cbf565b61131d565b6040516106e19190612c67565b60405180910390f35b6106f2611386565b6040516106ff9190612d2d565b60405180910390f35b610722600480360381019061071d9190612cbf565b6113ac565b60405161072f919061326d565b60405180910390f35b610752600480360381019061074d9190613288565b611470565b60405161075f9190612bbc565b60405180910390f35b610770611504565b60405161077d9190612dc3565b60405180910390f35b6107a0600480360381019061079b9190612cbf565b611509565b6040516107af939291906132d7565b60405180910390f35b6107d260048036038101906107cd9190612e83565b611540565b005b60006107df826115c6565b9050919050565b6060600080546107f59061333d565b80601f01602080910402602001604051908101604052809291908181526020018280546108219061333d565b801561086e5780601f106108435761010080835404028352916020019161086e565b820191906000526020600020905b81548152906001019060200180831161085157829003601f168201915b5050505050905090565b600061088382611640565b5061088d826116c8565b9050919050565b6108a682826108a1611705565b61170d565b5050565b602081565b6000600880549050905090565b600681565b600073ffffffffffffffffffffffffffffffffffffffff168273ffffffffffffffffffffffffffffffffffffffff16036109335760006040517f64a0ae9200000000000000000000000000000000000000000000000000000000815260040161092a9190612d2d565b60405180910390fd5b60006109478383610942611705565b61171f565b90508373ffffffffffffffffffffffffffffffffffffffff168173ffffffffffffffffffffffffffffffffffffffff16146109bd578382826040517f64283d7b0000000000000000000000000000000000000000000000000000000081526004016109b49392919061336e565b60405180910390fd5b50505050565b600c81565b60006109d383610fe5565b8210610a185782826040517fa57d13dc000000000000000000000000000000000000000000000000000000008152600401610a0f9291906133a5565b60405180910390fd5b600660008473ffffffffffffffffffffffffffffffffffffffff1673ffffffffffffffffffffffffffffffffffffffff168152602001908152602001600020600083815260200190815260200160002054905092915050565b6000806004811115610a8657610a856131b4565b5b826004811115610a9957610a986131b4565b5b03610aa75760069050610b7f565b60016004811115610abb57610aba6131b4565b5b826004811115610ace57610acd6131b4565b5b03610adc57600c9050610b7f565b60026004811115610af057610aef6131b4565b5b826004811115610b0357610b026131b4565b5b03610b115760129050610b7f565b60036004811115610b2557610b246131b4565b5b826004811115610b3857610b376131b4565b5b03610b465760209050610b7f565b600480811115610b5957610b586131b4565b5b826004811115610b6c57610b6b6131b4565b5b03610b7a5760309050610b7f565b600090505b919050565b610b8c611735565b80600c60006101000a81548173ffffffffffffffffffffffffffffffffffffffff021916908373ffffffffffffffffffffffffffffffffffffffff16021790555050565b610beb838383604051806020016040528060008152506112ee565b505050565b6000600c60009054906101000a900473ffffffffffffffffffffffffffffffffffffffff1673ffffffffffffffffffffffffffffffffffffffff163373ffffffffffffffffffffffffffffffffffffffff1614610c82576040517f08c379a0000000000000000000000000000000000000000000000000000000008152600401610c799061341a565b60405180910390fd5b600080610c8e84610fe5565b905060005b81811015610d47576000610ca786836109c8565b90506000610cb4826110b3565b90506000811115610d385742600d6000848152602001908152602001600020600201819055508085610ce69190613469565b9450818773ffffffffffffffffffffffffffffffffffffffff167f8a9b14cdbcb452f7e7f2887aa332b94ae308b9b9aeaedb8db4d23abefaf1184583604051610d2f9190612dc3565b60405180910390a35b50508080600101915050610c93565b508192505050919050565b6000610d5c6108af565b8210610da2576000826040517fa57d13dc000000000000000000000000000000000000000000000000000000008152600401610d999291906133a5565b60405180910390fd5b60088281548110610db657610db561349d565b5b90600052602060002001549050919050565b601c81565b601281565b6000610ddd82611640565b9050919050565b6000600c60009054906101000a900473ffffffffffffffffffffffffffffffffffffffff1673ffffffffffffffffffffffffffffffffffffffff163373ffffffffffffffffffffffffffffffffffffffff1614610e76576040517f08c379a0000000000000000000000000000000000000000000000000000000008152600401610e6d9061341a565b60405180910390fd5b6000600b6000815480929190610e8b906134cc565b9190505590506000610e9d82856117bc565b9050610ea984836118a1565b6040518060600160405280826004811115610ec757610ec66131b4565b5b815260200142815260200142815250600d600084815260200190815260200160002060008201518160000160006101000a81548160ff02191690836004811115610f1457610f136131b4565b5b02179055506020820151816001015560408201518160020155905050818473ffffffffffffffffffffffffffffffffffffffff167f07bd90ec369b61fe11807d64be8091465ee05e8c9bb6f9126c72e10f88073f1283604051610f779190613514565b60405180910390a38192505050919050565b600080600090506000610f9b84610fe5565b905060005b81811015610fda576000610fb486836109c8565b9050610fbf816110b3565b84610fca9190613469565b9350508080600101915050610fa0565b508192505050919050565b60008073ffffffffffffffffffffffffffffffffffffffff168273ffffffffffffffffffffffffffffffffffffffff16036110585760006040517f89c62b6400000000000000000000000000000000000000000000000000000000815260040161104f9190612d2d565b60405180910390fd5b600360008373ffffffffffffffffffffffffffffffffffffffff1673ffffffffffffffffffffffffffffffffffffffff168152602001908152602001600020549050919050565b6110a7611735565b6110b160006118bf565b565b60006110be82611985565b6110fd576040517f08c379a00000000000000000000000000000000000000000000000000000000081526004016110f49061357b565b60405180910390fd5b6000600d600084815260200190815260200160002090506000816002015442611126919061359b565b905060006111448360000160009054906101000a900460ff16610a71565b905062015180828261115691906135cf565b6111609190613640565b9350505050919050565b6060600061117783610fe5565b905060008167ffffffffffffffff81111561119557611194613006565b5b6040519080825280602002602001820160405280156111c35781602001602082028036833780820191505090505b50905060005b82811015611207576111db85826109c8565b8282815181106111ee576111ed61349d565b5b60200260200101818152505080806001019150506111c9565b508092505050919050565b6000600a60009054906101000a900473ffffffffffffffffffffffffffffffffffffffff16905090565b600681565b6060600180546112509061333d565b80601f016020809104026020016040519081016040528092919081815260200182805461127c9061333d565b80156112c95780601f1061129e576101008083540402835291602001916112c9565b820191906000526020600020905b8154815290600101906020018083116112ac57829003601f168201915b5050505050905090565b6112e56112de611705565b83836119c6565b5050565b600281565b6112f98484846108c1565b61130d611304611705565b85858585611b35565b50505050565b603081565b600e81565b606061132882611640565b506000611333611ce6565b90506000815111611353576040518060200160405280600081525061137e565b8061135d84611cfd565b60405160200161136e9291906136ad565b6040516020818303038152906040525b915050919050565b600c60009054906101000a900473ffffffffffffffffffffffffffffffffffffffff1681565b6113b4612ad5565b6113bd82611985565b6113fc576040517f08c379a00000000000000000000000000000000000000000000000000000000081526004016113f39061357b565b60405180910390fd5b600d60008381526020019081526020016000206040518060600160405290816000820160009054906101000a900460ff16600481111561143f5761143e6131b4565b5b6004811115611451576114506131b4565b5b8152602001600182015481526020016002820154815250509050919050565b6000600560008473ffffffffffffffffffffffffffffffffffffffff1673ffffffffffffffffffffffffffffffffffffffff16815260200190815260200160002060008373ffffffffffffffffffffffffffffffffffffffff1673ffffffffffffffffffffffffffffffffffffffff16815260200190815260200160002060009054906101000a900460ff16905092915050565b603281565b600d6020528060005260406000206000915090508060000160009054906101000a900460ff16908060010154908060020154905083565b611548611735565b600073ffffffffffffffffffffffffffffffffffffffff168173ffffffffffffffffffffffffffffffffffffffff16036115ba5760006040517f1e4fbdf70000000000000000000000000000000000000000000000000000000081526004016115b19190612d2d565b60405180910390fd5b6115c3816118bf565b50565b60007f780e9d63000000000000000000000000000000000000000000000000000000007bffffffffffffffffffffffffffffffffffffffffffffffffffffffff1916827bffffffffffffffffffffffffffffffffffffffffffffffffffffffff19161480611639575061163882611dcb565b5b9050919050565b60008061164c83611ead565b9050600073ffffffffffffffffffffffffffffffffffffffff168173ffffffffffffffffffffffffffffffffffffffff16036116bf57826040517f7e2732890000000000000000000000000000000000000000000000000000000081526004016116b69190612dc3565b60405180910390fd5b80915050919050565b60006004600083815260200190815260200160002060009054906101000a900473ffffffffffffffffffffffffffffffffffffffff169050919050565b600033905090565b61171a8383836001611eea565b505050565b600061172c8484846120af565b90509392505050565b61173d611705565b73ffffffffffffffffffffffffffffffffffffffff1661175b611212565b73ffffffffffffffffffffffffffffffffffffffff16146117ba5761177e611705565b6040517f118cdaa70000000000000000000000000000000000000000000000000000000081526004016117b19190612d2d565b60405180910390fd5b565b600080606442448686600b546040516020016117dc95949392919061373a565b6040516020818303038152906040528051906020012060001c6117ff9190613799565b9050603281101561181457600091505061189b565b601c60326118229190613469565b81101561183357600191505061189b565b600e601c60326118439190613469565b61184d9190613469565b81101561185e57600291505061189b565b6006600e601c60326118709190613469565b61187a9190613469565b6118849190613469565b81101561189557600391505061189b565b60049150505b92915050565b6118bb8282604051806020016040528060008152506121cc565b5050565b6000600a60009054906101000a900473ffffffffffffffffffffffffffffffffffffffff16905081600a60006101000a81548173ffffffffffffffffffffffffffffffffffffffff021916908373ffffffffffffffffffffffffffffffffffffffff1602179055508173ffffffffffffffffffffffffffffffffffffffff168173ffffffffffffffffffffffffffffffffffffffff167f8be0079c531659141344cd1fd0a4f28419497f9722a3daafe3b4186f6b6457e060405160405180910390a35050565b60008073ffffffffffffffffffffffffffffffffffffffff166119a783611ead565b73ffffffffffffffffffffffffffffffffffffffff1614159050919050565b600073ffffffffffffffffffffffffffffffffffffffff168273ffffffffffffffffffffffffffffffffffffffff1603611a3757816040517f5b08ba18000000000000000000000000000000000000000000000000000000008152600401611a2e9190612d2d565b60405180910390fd5b80600560008573ffffffffffffffffffffffffffffffffffffffff1673ffffffffffffffffffffffffffffffffffffffff16815260200190815260200160002060008473ffffffffffffffffffffffffffffffffffffffff1673ffffffffffffffffffffffffffffffffffffffff16815260200190815260200160002060006101000a81548160ff0219169083151502179055508173ffffffffffffffffffffffffffffffffffffffff168373ffffffffffffffffffffffffffffffffffffffff167f17307eab39ab6107e8899845ad3d59bd9653f200f220920489ca2b5937696c3183604051611b289190612bbc565b60405180910390a3505050565b60008373ffffffffffffffffffffffffffffffffffffffff163b1115611cdf578273ffffffffffffffffffffffffffffffffffffffff1663150b7a02868685856040518563ffffffff1660e01b8152600401611b94949392919061381f565b6020604051808303816000875af1925050508015611bd057506040513d601f19601f82011682018060405250810190611bcd9190613880565b60015b611c54573d8060008114611c00576040519150601f19603f3d011682016040523d82523d6000602084013e611c05565b606091505b506000815103611c4c57836040517f64a0ae92000000000000000000000000000000000000000000000000000000008152600401611c439190612d2d565b60405180910390fd5b805160208201fd5b63150b7a0260e01b7bffffffffffffffffffffffffffffffffffffffffffffffffffffffff1916817bffffffffffffffffffffffffffffffffffffffffffffffffffffffff191614611cdd57836040517f64a0ae92000000000000000000000000000000000000000000000000000000008152600401611cd49190612d2d565b60405180910390fd5b505b5050505050565b606060405180602001604052806000815250905090565b606060006001611d0c846121f0565b01905060008167ffffffffffffffff811115611d2b57611d2a613006565b5b6040519080825280601f01601f191660200182016040528015611d5d5781602001600182028036833780820191505090505b509050600082602083010190505b600115611dc0578080600190039150507f3031323334353637383961626364656600000000000000000000000000000000600a86061a8153600a8581611db457611db3613611565b5b04945060008503611d6b575b819350505050919050565b60007f80ac58cd000000000000000000000000000000000000000000000000000000007bffffffffffffffffffffffffffffffffffffffffffffffffffffffff1916827bffffffffffffffffffffffffffffffffffffffffffffffffffffffff19161480611e9657507f5b5e139f000000000000000000000000000000000000000000000000000000007bffffffffffffffffffffffffffffffffffffffffffffffffffffffff1916827bffffffffffffffffffffffffffffffffffffffffffffffffffffffff1916145b80611ea65750611ea582612343565b5b9050919050565b60006002600083815260200190815260200160002060009054906101000a900473ffffffffffffffffffffffffffffffffffffffff169050919050565b8080611f235750600073ffffffffffffffffffffffffffffffffffffffff168273ffffffffffffffffffffffffffffffffffffffff1614155b15612057576000611f3384611640565b9050600073ffffffffffffffffffffffffffffffffffffffff168373ffffffffffffffffffffffffffffffffffffffff1614158015611f9e57508273ffffffffffffffffffffffffffffffffffffffff168173ffffffffffffffffffffffffffffffffffffffff1614155b8015611fb15750611faf8184611470565b155b15611ff357826040517fa9fbf51f000000000000000000000000000000000000000000000000000000008152600401611fea9190612d2d565b60405180910390fd5b811561205557838573ffffffffffffffffffffffffffffffffffffffff168273ffffffffffffffffffffffffffffffffffffffff167f8c5be1e5ebec7d5bd14f71427d1e84f3dd0314c0f7b2291e5b200ac8c7c3b92560405160405180910390a45b505b836004600085815260200190815260200160002060006101000a81548173ffffffffffffffffffffffffffffffffffffffff021916908373ffffffffffffffffffffffffffffffffffffffff16021790555050505050565b6000806120bd8585856123ad565b9050600073ffffffffffffffffffffffffffffffffffffffff168173ffffffffffffffffffffffffffffffffffffffff1603612101576120fc846125c7565b612140565b8473ffffffffffffffffffffffffffffffffffffffff168173ffffffffffffffffffffffffffffffffffffffff161461213f5761213e8185612610565b5b5b600073ffffffffffffffffffffffffffffffffffffffff168573ffffffffffffffffffffffffffffffffffffffff16036121825761217d846126fb565b6121c1565b8473ffffffffffffffffffffffffffffffffffffffff168173ffffffffffffffffffffffffffffffffffffffff16146121c0576121bf85856127cc565b5b5b809150509392505050565b6121d68383612857565b6121eb6121e1611705565b6000858585611b35565b505050565b600080600090507a184f03e93ff9f4daa797ed6e38ed64bf6a1f010000000000000000831061224e577a184f03e93ff9f4daa797ed6e38ed64bf6a1f010000000000000000838161224457612243613611565b5b0492506040810190505b6d04ee2d6d415b85acef8100000000831061228b576d04ee2d6d415b85acef8100000000838161228157612280613611565b5b0492506020810190505b662386f26fc1000083106122ba57662386f26fc1000083816122b0576122af613611565b5b0492506010810190505b6305f5e10083106122e3576305f5e10083816122d9576122d8613611565b5b0492506008810190505b61271083106123085761271083816122fe576122fd613611565b5b0492506004810190505b6064831061232b576064838161232157612320613611565b5b0492506002810190505b600a831061233a576001810190505b80915050919050565b60007f01ffc9a7000000000000000000000000000000000000000000000000000000007bffffffffffffffffffffffffffffffffffffffffffffffffffffffff1916827bffffffffffffffffffffffffffffffffffffffffffffffffffffffff1916149050919050565b6000806123b984611ead565b9050600073ffffffffffffffffffffffffffffffffffffffff168373ffffffffffffffffffffffffffffffffffffffff16146123fb576123fa818486612950565b5b600073ffffffffffffffffffffffffffffffffffffffff168173ffffffffffffffffffffffffffffffffffffffff161461248c5761243d600085600080611eea565b6001600360008373ffffffffffffffffffffffffffffffffffffffff1673ffffffffffffffffffffffffffffffffffffffff168152602001908152602001600020600082825403925050819055505b600073ffffffffffffffffffffffffffffffffffffffff168573ffffffffffffffffffffffffffffffffffffffff161461250f576001600360008773ffffffffffffffffffffffffffffffffffffffff1673ffffffffffffffffffffffffffffffffffffffff168152602001908152602001600020600082825401925050819055505b846002600086815260200190815260200160002060006101000a81548173ffffffffffffffffffffffffffffffffffffffff021916908373ffffffffffffffffffffffffffffffffffffffff160217905550838573ffffffffffffffffffffffffffffffffffffffff168273ffffffffffffffffffffffffffffffffffffffff167fddf252ad1be2c89b69c2b068fc378daa952ba7f163c4a11628f55a4df523b3ef60405160405180910390a4809150509392505050565b6008805490506009600083815260200190815260200160002081905550600881908060018154018082558091505060019003906000526020600020016000909190919091505550565b600061261b83610fe5565b90506000600760008481526020019081526020016000205490506000600660008673ffffffffffffffffffffffffffffffffffffffff1673ffffffffffffffffffffffffffffffffffffffff16815260200190815260200160002090508282146126c75760008160008581526020019081526020016000205490508082600085815260200190815260200160002081905550826007600083815260200190815260200160002081905550505b6007600085815260200190815260200160002060009055806000848152602001908152602001600020600090555050505050565b6000600160088054905061270f919061359b565b905060006009600084815260200190815260200160002054905060006008838154811061273f5761273e61349d565b5b9060005260206000200154905080600883815481106127615761276061349d565b5b9060005260206000200181905550816009600083815260200190815260200160002081905550600960008581526020019081526020016000206000905560088054806127b0576127af6138ad565b5b6001900381819060005260206000200160009055905550505050565b600060016127d984610fe5565b6127e3919061359b565b905081600660008573ffffffffffffffffffffffffffffffffffffffff1673ffffffffffffffffffffffffffffffffffffffff168152602001908152602001600020600083815260200190815260200160002081905550806007600084815260200190815260200160002081905550505050565b600073ffffffffffffffffffffffffffffffffffffffff168273ffffffffffffffffffffffffffffffffffffffff16036128c95760006040517f64a0ae920000000000000000000000000000000000000000000000000000000081526004016128c09190612d2d565b60405180910390fd5b60006128d78383600061171f565b9050600073ffffffffffffffffffffffffffffffffffffffff168173ffffffffffffffffffffffffffffffffffffffff161461294b5760006040517f73c6ac6e0000000000000000000000000000000000000000000000000000000081526004016129429190612d2d565b60405180910390fd5b505050565b61295b838383612a14565b612a0f57600073ffffffffffffffffffffffffffffffffffffffff168373ffffffffffffffffffffffffffffffffffffffff16036129d057806040517f7e2732890000000000000000000000000000000000000000000000000000000081526004016129c79190612dc3565b60405180910390fd5b81816040517f177e802f000000000000000000000000000000000000000000000000000000008152600401612a069291906133a5565b60405180910390fd5b505050565b60008073ffffffffffffffffffffffffffffffffffffffff168373ffffffffffffffffffffffffffffffffffffffff1614158015612acc57508273ffffffffffffffffffffffffffffffffffffffff168473ffffffffffffffffffffffffffffffffffffffff161480612a8d5750612a8c8484611470565b5b80612acb57508273ffffffffffffffffffffffffffffffffffffffff16612ab3836116c8565b73ffffffffffffffffffffffffffffffffffffffff16145b5b90509392505050565b604051806060016040528060006004811115612af457612af36131b4565b5b815260200160008152602001600081525090565b6000604051905090565b600080fd5b600080fd5b60007fffffffff0000000000000000000000000000000000000000000000000000000082169050919050565b612b5181612b1c565b8114612b5c57600080fd5b50565b600081359050612b6e81612b48565b92915050565b600060208284031215612b8a57612b89612b12565b5b6000612b9884828501612b5f565b91505092915050565b60008115159050919050565b612bb681612ba1565b82525050565b6000602082019050612bd16000830184612bad565b92915050565b600081519050919050565b600082825260208201905092915050565b60005b83811015612c11578082015181840152602081019050612bf6565b60008484015250505050565b6000601f19601f8301169050919050565b6000612c3982612bd7565b612c438185612be2565b9350612c53818560208601612bf3565b612c5c81612c1d565b840191505092915050565b60006020820190508181036000830152612c818184612c2e565b905092915050565b6000819050919050565b612c9c81612c89565b8114612ca757600080fd5b50565b600081359050612cb981612c93565b92915050565b600060208284031215612cd557612cd4612b12565b5b6000612ce384828501612caa565b91505092915050565b600073ffffffffffffffffffffffffffffffffffffffff82169050919050565b6000612d1782612cec565b9050919050565b612d2781612d0c565b82525050565b6000602082019050612d426000830184612d1e565b92915050565b612d5181612d0c565b8114612d5c57600080fd5b50565b600081359050612d6e81612d48565b92915050565b60008060408385031215612d8b57612d8a612b12565b5b6000612d9985828601612d5f565b9250506020612daa85828601612caa565b9150509250929050565b612dbd81612c89565b82525050565b6000602082019050612dd86000830184612db4565b92915050565b600080600060608486031215612df757612df6612b12565b5b6000612e0586828701612d5f565b9350506020612e1686828701612d5f565b9250506040612e2786828701612caa565b9150509250925092565b60058110612e3e57600080fd5b50565b600081359050612e5081612e31565b92915050565b600060208284031215612e6c57612e6b612b12565b5b6000612e7a84828501612e41565b91505092915050565b600060208284031215612e9957612e98612b12565b5b6000612ea784828501612d5f565b91505092915050565b600081519050919050565b600082825260208201905092915050565b6000819050602082019050919050565b612ee581612c89565b82525050565b6000612ef78383612edc565b60208301905092915050565b6000602082019050919050565b6000612f1b82612eb0565b612f258185612ebb565b9350612f3083612ecc565b8060005b83811015612f61578151612f488882612eeb565b9750612f5383612f03565b925050600181019050612f34565b5085935050505092915050565b60006020820190508181036000830152612f888184612f10565b905092915050565b612f9981612ba1565b8114612fa457600080fd5b50565b600081359050612fb681612f90565b92915050565b60008060408385031215612fd357612fd2612b12565b5b6000612fe185828601612d5f565b9250506020612ff285828601612fa7565b9150509250929050565b600080fd5b600080fd5b7f4e487b7100000000000000000000000000000000000000000000000000000000600052604160045260246000fd5b61303e82612c1d565b810181811067ffffffffffffffff8211171561305d5761305c613006565b5b80604052505050565b6000613070612b08565b905061307c8282613035565b919050565b600067ffffffffffffffff82111561309c5761309b613006565b5b6130a582612c1d565b9050602081019050919050565b82818337600083830152505050565b60006130d46130cf84613081565b613066565b9050828152602081018484840111156130f0576130ef613001565b5b6130fb8482856130b2565b509392505050565b600082601f83011261311857613117612ffc565b5b81356131288482602086016130c1565b91505092915050565b6000806000806080858703121561314b5761314a612b12565b5b600061315987828801612d5f565b945050602061316a87828801612d5f565b935050604061317b87828801612caa565b925050606085013567ffffffffffffffff81111561319c5761319b612b17565b5b6131a887828801613103565b91505092959194509250565b7f4e487b7100000000000000000000000000000000000000000000000000000000600052602160045260246000fd5b600581106131f4576131f36131b4565b5b50565b6000819050613205826131e3565b919050565b6000613215826131f7565b9050919050565b6132258161320a565b82525050565b606082016000820151613241600085018261321c565b5060208201516132546020850182612edc565b5060408201516132676040850182612edc565b50505050565b6000606082019050613282600083018461322b565b92915050565b6000806040838503121561329f5761329e612b12565b5b60006132ad85828601612d5f565b92505060206132be85828601612d5f565b9150509250929050565b6132d18161320a565b82525050565b60006060820190506132ec60008301866132c8565b6132f96020830185612db4565b6133066040830184612db4565b949350505050565b7f4e487b7100000000000000000000000000000000000000000000000000000000600052602260045260246000fd5b6000600282049050600182168061335557607f821691505b6020821081036133685761336761330e565b5b50919050565b60006060820190506133836000830186612d1e565b6133906020830185612db4565b61339d6040830184612d1e565b949350505050565b60006040820190506133ba6000830185612d1e565b6133c76020830184612db4565b9392505050565b7f4f6e6c792067616d6520636f6e74726163740000000000000000000000000000600082015250565b6000613404601283612be2565b915061340f826133ce565b602082019050919050565b60006020820190508181036000830152613433816133f7565b9050919050565b7f4e487b7100000000000000000000000000000000000000000000000000000000600052601160045260246000fd5b600061347482612c89565b915061347f83612c89565b92508282019050808211156134975761349661343a565b5b92915050565b7f4e487b7100000000000000000000000000000000000000000000000000000000600052603260045260246000fd5b60006134d782612c89565b91507fffffffffffffffffffffffffffffffffffffffffffffffffffffffffffffffff82036135095761350861343a565b5b600182019050919050565b600060208201905061352960008301846132c8565b92915050565b7f4669736820646f6573206e6f7420657869737400000000000000000000000000600082015250565b6000613565601383612be2565b91506135708261352f565b602082019050919050565b6000602082019050818103600083015261359481613558565b9050919050565b60006135a682612c89565b91506135b183612c89565b92508282039050818111156135c9576135c861343a565b5b92915050565b60006135da82612c89565b91506135e583612c89565b92508282026135f381612c89565b9150828204841483151761360a5761360961343a565b5b5092915050565b7f4e487b7100000000000000000000000000000000000000000000000000000000600052601260045260246000fd5b600061364b82612c89565b915061365683612c89565b92508261366657613665613611565b5b828204905092915050565b600081905092915050565b600061368782612bd7565b6136918185613671565b93506136a1818560208601612bf3565b80840191505092915050565b60006136b9828561367c565b91506136c5828461367c565b91508190509392505050565b6000819050919050565b6136ec6136e782612c89565b6136d1565b82525050565b60008160601b9050919050565b600061370a826136f2565b9050919050565b600061371c826136ff565b9050919050565b61373461372f82612d0c565b613711565b82525050565b600061374682886136db565b60208201915061375682876136db565b60208201915061376682866136db565b6020820191506137768285613723565b60148201915061378682846136db565b6020820191508190509695505050505050565b60006137a482612c89565b91506137af83612c89565b9250826137bf576137be613611565b5b828206905092915050565b600081519050919050565b600082825260208201905092915050565b60006137f1826137ca565b6137fb81856137d5565b935061380b818560208601612bf3565b61381481612c1d565b840191505092915050565b60006080820190506138346000830187612d1e565b6138416020830186612d1e565b61384e6040830185612db4565b818103606083015261386081846137e6565b905095945050505050565b60008151905061387a81612b48565b92915050565b60006020828403121561389657613895612b12565b5b60006138a48482850161386b565b91505092915050565b7f4e487b7100000000000000000000000000000000000000000000000000000000600052603160045260246000fdfea26469706673582212209e5099032b1cd4f6bd9f36bcadebfad9e4bb717177be17e9d0d0dbb7f6523d7864736f6c63430008180033",
  "devdoc": {
    "details": "Fish produce Spawn Dust over time based on rarity",
    "errors": {
      "ERC721EnumerableForbiddenBatchMint()": [
        {
          "details": "Batch mint is not allowed."
        }
      ],
      "ERC721IncorrectOwner(address,uint256,address)": [
        {
          "details": "Indicates an error related to the ownership over a particular token. Used in transfers.",
          "params": {
            "owner": "Address of the current owner of a token.",
            "sender": "Address whose tokens are being transferred.",
            "tokenId": "Identifier number of a token."
          }
        }
      ],
      "ERC721InsufficientApproval(address,uint256)": [
        {
          "details": "Indicates a failure with the `operator`s approval. Used in transfers.",
          "params": {
            "operator": "Address that may be allowed to operate on tokens without being their owner.",
            "tokenId": "Identifier number of a token."
          }
        }
      ],
      "ERC721InvalidApprover(address)": [
        {
          "details": "Indicates a failure with the `approver` of a token to be approved. Used in approvals.",
          "params": {
            "approver": "Address initiating an approval operation."
          }
        }
      ],
      "ERC721InvalidOperator(address)": [
        {
          "details": "Indicates a failure with the `operator` to be approved. Used in approvals.",
          "params": {
            "operator": "Address that may be allowed to operate on tokens without being their owner."
          }
        }
      ],
      "ERC721InvalidOwner(address)": [
        {
          "details": "Indicates that an address can't be an owner. For example, `address(0)` is a forbidden owner in ERC-20. Used in balance queries.",
          "params": {
            "owner": "Address of the current owner of a token."
          }
        }
      ],
      "ERC721InvalidReceiver(address)": [
        {
          "details": "Indicates a failure with the token `receiver`. Used in transfers.",
          "params": {
            "receiver": "Address to which tokens are being transferred."
          }
        }
      ],
      "ERC721InvalidSender(address)": [
        {
          "details": "Indicates a failure with the token `sender`. Used in transfers.",
          "params": {
            "sender": "Address whose tokens are being transferred."
          }
        }
      ],
      "ERC721NonexistentToken(uint256)": [
        {
          "details": "Indicates a `tokenId` whose `owner` is the zero address.",
          "params": {
            "tokenId": "Identifier number of a token."
          }
        }
      ],
      "ERC721OutOfBoundsIndex(address,uint256)": [
        {
          "details": "An `owner`'s token query was out of bounds for `index`. NOTE: The owner being `address(0)` indicates a global out of bounds index."
        }
      ],
      "OwnableInvalidOwner(address)": [
        {
          "details": "The owner is not a valid owner account. (eg. `address(0)`)"
        }
      ],
      "OwnableUnauthorizedAccount(address)": [
        {
          "details": "The caller account is not authorized to perform an operation."
        }
      ]
    },
    "events": {
      "Approval(address,address,uint256)": {
        "details": "Emitted when `owner` enables `approved` to manage the `tokenId` token."
      },
      "ApprovalForAll(address,address,bool)": {
        "details": "Emitted when `owner` enables or disables (`approved`) `operator` to manage all of its assets."
      },
      "Transfer(address,address,uint256)": {
        "details": "Emitted when `tokenId` token is transferred from `from` to `to`."
      }
    },
    "kind": "dev",
    "methods": {
      "approve(address,uint256)": {
        "details": "Gives permission to `to` to transfer `tokenId` token to another account. The approval is cleared when the token is transferred. Only a single account can be approved at a time, so approving the zero address clears previous approvals. Requirements: - The caller must own the token or be an approved operator. - `tokenId` must exist. Emits an {Approval} event."
      },
      "balanceOf(address)": {
        "details": "Returns the number of tokens in ``owner``'s account."
      },
      "collectAllSpawnDust(address)": {
        "params": {
          "_owner": "The owner address"
        },
        "returns": {
          "_0": "totalDust Total dust collected"
        }
      },
      "getApproved(uint256)": {
        "details": "Returns the account approved for `tokenId` token. Requirements: - `tokenId` must exist."
      },
      "getFishByOwner(address)": {
        "params": {
          "_owner": "The owner address"
        }
      },
      "getFishInfo(uint256)": {
        "params": {
          "_tokenId": "The fish token ID"
        }
      },
      "getPendingDustForFish(uint256)": {
        "params": {
          "_tokenId": "The fish token ID"
        }
      },
      "getPendingSpawnDust(address)": {
        "params": {
          "_owner": "The owner address"
        }
      },
      "isApprovedForAll(address,address)": {
        "details": "Returns if the `operator` is allowed to manage all of the assets of `owner`. See {setApprovalForAll}"
      },
      "mint(address)": {
        "params": {
          "_to": "Address to mint to"
        },
        "returns": {
          "_0": "tokenId The minted token ID"
        }
      },
      "name()": {
        "details": "Returns the token collection name."
      },
      "owner()": {
        "details": "Returns the address of the current owner."
      },
      "ownerOf(uint256)": {
        "details": "Returns the owner of the `tokenId` token. Requirements: - `tokenId` must exist."
      },
      "renounceOwnership()": {
        "details": "Leaves the contract without owner. It will not be possible to call `onlyOwner` functions. Can only be called by the current owner. NOTE: Renouncing ownership will leave the contract without an owner, thereby disabling any functionality that is only available to the owner."
      },
      "safeTransferFrom(address,address,uint256)": {
        "details": "Safely transfers `tokenId` token from `from` to `to`, checking first that contract recipients are aware of the ERC-721 protocol to prevent tokens from being forever locked. Requirements: - `from` cannot be the zero address. - `to` cannot be the zero address. - `tokenId` token must exist and be owned by `from`. - If the caller is not `from`, it must have been allowed to move this token by either {approve} or   {setApprovalForAll}. - If `to` refers to a smart contract, it must implement {IERC721Receiver-onERC721Received}, which is called upon   a safe transfer. Emits a {Transfer} event."
      },
      "safeTransferFrom(address,address,uint256,bytes)": {
        "details": "Safely transfers `tokenId` token from `from` to `to`. Requirements: - `from` cannot be the zero address. - `to` cannot be the zero address. - `tokenId` token must exist and be owned by `from`. - If the caller is not `from`, it must be approved to move this token by either {approve} or {setApprovalForAll}. - If `to` refers to a smart contract, it must implement {IERC721Receiver-onERC721Received}, which is called upon   a safe transfer. Emits a {Transfer} event."
      },
      "setApprovalForAll(address,bool)": {
        "details": "Approve or remove `operator` as an operator for the caller. Operators can call {transferFrom} or {safeTransferFrom} for any token owned by the caller. Requirements: - The `operator` cannot be the address zero. Emits an {ApprovalForAll} event."
      },
      "symbol()": {
        "details": "Returns the token collection symbol."
      },
      "tokenByIndex(uint256)": {
        "details": "Returns a token ID at a given `index` of all the tokens stored by the contract. Use along with {totalSupply} to enumerate all tokens."
      },
      "tokenOfOwnerByIndex(address,uint256)": {
        "details": "Returns a token ID owned by `owner` at a given `index` of its token list. Use along with {balanceOf} to enumerate all of ``owner``'s tokens."
      },
      "tokenURI(uint256)": {
        "details": "Returns the Uniform Resource Identifier (URI) for `tokenId` token."
      },
      "totalSupply()": {
        "details": "Returns the total amount of tokens stored by the contract."
      },
      "transferFrom(address,address,uint256)": {
        "details": "Transfers `tokenId` token from `from` to `to`. WARNING: Note that the caller is responsible to confirm that the recipient is capable of receiving ERC-721 or else they may be permanently lost. Usage of {safeTransferFrom} prevents loss, though the caller must understand this adds an external call which potentially creates a reentrancy vulnerability. Requirements: - `from` cannot be the zero address. - `to` cannot be the zero address. - `tokenId` token must be owned by `from`. - If the caller is not `from`, it must be approved to move this token by either {approve} or {setApprovalForAll}. Emits a {Transfer} event."
      },
      "transferOwnership(address)": {
        "details": "Transfers ownership of the contract to a new account (`newOwner`). Can only be called by the current owner."
      }
    },
    "title": "FishNFT",
    "version": 1
  },
  "userdoc": {
    "kind": "user",
    "methods": {
      "collectAllSpawnDust(address)": {
        "notice": "Collect Spawn Dust from all fish owned by user"
      },
      "getDustPerDay(uint8)": {
        "notice": "Get Spawn Dust production rate per day for a rarity"
      },
      "getFishByOwner(address)": {
        "notice": "Get all fish owned by address"
      },
      "getFishInfo(uint256)": {
        "notice": "Get fish info"
      },
      "getPendingDustForFish(uint256)": {
        "notice": "Get pending Spawn Dust for a single fish"
      },
      "getPendingSpawnDust(address)": {
        "notice": "Get total pending Spawn Dust for all fish owned by user"
      },
      "mint(address)": {
        "notice": "Mint a new fish with random rarity"
      },
      "setGameContract(address)": {
        "notice": "Set the game contract address"
      }
    },
    "notice": "ERC-721 contract for fish",
    "version": 1
  },
  "storageLayout": {
    "storage": [
      {
        "astId": 317,
        "contract": "contracts/FishNFT.sol:FishNFT",
        "label": "_name",
        "offset": 0,
        "slot": "0",
        "type": "t_string_storage"
      },
      {
        "astId": 319,
        "contract": "contracts/FishNFT.sol:FishNFT",
        "label": "_symbol",
        "offset": 0,
        "slot": "1",
        "type": "t_string_storage"
      },
      {
        "astId": 323,
        "contract": "contracts/FishNFT.sol:FishNFT",
        "label": "_owners",
        "offset": 0,
        "slot": "2",
        "type": "t_mapping(t_uint256,t_address)"
      },
      {
        "astId": 327,
        "contract": "contracts/FishNFT.sol:FishNFT",
        "label": "_balances",
        "offset": 0,
        "slot": "3",
        "type": "t_mapping(t_address,t_uint256)"
      },
      {
        "astId": 331,
        "contract": "contracts/FishNFT.sol:FishNFT",
        "label": "_tokenApprovals",
        "offset": 0,
        "slot": "4",
        "type": "t_mapping(t_uint256,t_address)"
      },
      {
        "astId": 337,
        "contract": "contracts/FishNFT.sol:FishNFT",
        "label": "_operatorApprovals",
        "offset": 0,
        "slot": "5",
        "type": "t_mapping(t_address,t_mapping(t_address,t_bool))"
      },
      {
        "astId": 1395,
        "contract": "contracts/FishNFT.sol:FishNFT",
        "label": "_ownedTokens",
        "offset": 0,
        "slot": "6",
        "type": "t_mapping(t_address,t_mapping(t_uint256,t_uint256))"
      },
      {
        "astId": 1399,
        "contract": "contracts/FishNFT.sol:FishNFT",
        "label": "_ownedTokensIndex",
        "offset": 0,
        "slot": "7",
        "type": "t_mapping(t_uint256,t_uint256)"
      },
      {
        "astId": 1402,
        "contract": "contracts/FishNFT.sol:FishNFT",
        "label": "_allTokens",
        "offset": 0,
        "slot": "8",
        "type": "t_array(t_uint256)dyn_storage"
      },
      {
        "astId": 1406,
        "contract": "contracts/FishNFT.sol:FishNFT",
        "label": "_allTokensIndex",
        "offset": 0,
        "slot": "9",
        "type": "t_mapping(t_uint256,t_uint256)"
      },
      {
        "astId": 8,
        "contract": "contracts/FishNFT.sol:FishNFT",
        "label": "_owner",
        "offset": 0,
        "slot": "10",
        "type": "t_address"
      },
      {
        "astId": 7381,
        "contract": "contracts/FishNFT.sol:FishNFT",
        "label": "_nextTokenId",
        "offset": 0,
        "slot": "11",
        "type": "t_uint256"
      },
      {
        "astId": 7383,
        "contract": "contracts/FishNFT.sol:FishNFT",
        "label": "gameContract",
        "offset": 0,
        "slot": "12",
        "type": "t_address"
      },
      {
        "astId": 7396,
        "contract": "contracts/FishNFT.sol:FishNFT",
        "label": "fish",
        "offset": 0,
        "slot": "13",
        "type": "t_mapping(t_uint256,t_struct(FishInfo)7391_storage)"
      }
    ],
    "types": {
      "t_address": {
        "encoding": "inplace",
        "label": "address",
        "numberOfBytes": "20"
      },
      "t_array(t_uint256)dyn_storage": {
        "base": "t_uint256",
        "encoding": "dynamic_array",
        "label": "uint256[]",
        "numberOfBytes": "32"
      },
      "t_bool": {
        "encoding": "inplace",
        "label": "bool",
        "numberOfBytes": "1"
      },
      "t_enum(Rarity)7349": {
        "encoding": "inplace",
        "label": "enum FishNFT.Rarity",
        "numberOfBytes": "1"
      },
      "t_mapping(t_address,t_bool)": {
        "encoding": "mapping",
        "key": "t_address",
        "label": "mapping(address => bool)",
        "numberOfBytes": "32",
        "value": "t_bool"
      },
      "t_mapping(t_address,t_mapping(t_address,t_bool))": {
        "encoding": "mapping",
        "key": "t_address",
        "label": "mapping(address => mapping(address => bool))",
        "numberOfBytes": "32",
        "value": "t_mapping(t_address,t_bool)"
      },
      "t_mapping(t_address,t_mapping(t_uint256,t_uint256))": {
        "encoding": "mapping",
        "key": "t_address",
        "label": "mapping(address => mapping(uint256 => uint256))",
        "numberOfBytes": "32",
        "value": "t_mapping(t_uint256,t_uint256)"
      },
      "t_mapping(t_address,t_uint256)": {
        "encoding": "mapping",
        "key": "t_address",
        "label": "mapping(address => uint256)",
        "numberOfBytes": "32",
        "value": "t_uint256"
      },
      "t_mapping(t_uint256,t_address)": {
        "encoding": "mapping",
        "key": "t_uint256",
        "label": "mapping(uint256 => address)",
        "numberOfBytes": "32",
        "value": "t_address"
      },
      "t_mapping(t_uint256,t_struct(FishInfo)7391_storage)": {
        "encoding": "mapping",
        "key": "t_uint256",
        "label": "mapping(uint256 => struct FishNFT.FishInfo)",
        "numberOfBytes": "32",
        "value": "t_struct(FishInfo)7391_storage"
      },
      "t_mapping(t_uint256,t_uint256)": {
        "encoding": "mapping",
        "key": "t_uint256",
        "label": "mapping(uint256 => uint256)",
        "numberOfBytes": "32",
        "value": "t_uint256"
      },
      "t_string_storage": {
        "encoding": "bytes",
        "label": "string",
        "numberOfBytes": "32"
      },
      "t_struct(FishInfo)7391_storage": {
        "encoding": "inplace",
        "label": "struct FishNFT.FishInfo",
        "members": [
          {
            "astId": 7386,
            "contract": "contracts/FishNFT.sol:FishNFT",
            "label": "rarity",
            "offset": 0,
            "slot": "0",
            "type": "t_enum(Rarity)7349"
          },
          {
            "astId": 7388,
            "contract": "contracts/FishNFT.sol:FishNFT",
            "label": "mintedAt",
            "offset": 0,
            "slot": "1",
            "type": "t_uint256"
          },
          {
            "astId": 7390,
            "contract": "contracts/FishNFT.sol:FishNFT",
            "label": "lastDustCollectedAt",
            "offset": 0,
            "slot": "2",
            "type": "t_uint256"
          }
        ],
        "numberOfBytes": "96"
      },
      "t_uint256": {
        "encoding": "inplace",
        "label": "uint256",
        "numberOfBytes": "32"
      }
    }
  }
}