{
  "_format": "hh-sol-artifact-1",
  "contractName": "EggNFT",
  "sourceName": "contracts/EggNFT.sol",
  "abi": [
    {
      "inputs": [],
      "stateMutability": "nonpayable",
      "type": "constructor"
    },
    {
      "inputs": [],
      "name": "ERC721EnumerableForbiddenBatchMint",
      "type": "error"
    },
    {
      "inputs": [
        {
          "internalType": "address",
          "name": "sender",
          "type": "address"
        },
        {
          "internalType": "uint256",
          "name": "tokenId",
          "type": "uint256"
        },
        {
          "internalType": "address",
          "name": "owner",
          "type": "address"
        }
      ],
      "name": "ERC721IncorrectOwner",
      "type": "error"
    },
    {
      "inputs": [
        {
          "internalType": "address",
          "name": "operator",
          "type": "address"
        },
        {
          "internalType": "uint256",
          "name": "tokenId",
          "type": "uint256"
        }
      ],
      "name": "ERC721InsufficientApproval",
      "type": "error"
    },
    {
      "inputs": [
        {
          "internalType": "address",
          "name": "approver",
          "type": "address"
        }
      ],
      "name": "ERC721InvalidApprover",
      "type": "error"
    },
    {
      "inputs": [
        {
          "internalType": "address",
          "name": "operator",
          "type": "address"
        }
      ],
      "name": "ERC721InvalidOperator",
      "type": "error"
    },
    {
      "inputs": [
        {
          "internalType": "address",
          "name": "owner",
          "type": "address"
        }
      ],
      "name": "ERC721InvalidOwner",
      "type": "error"
    },
    {
      "inputs": [
        {
          "internalType": "address",
          "name": "receiver",
          "type": "address"
        }
      ],
      "name": "ERC721InvalidReceiver",
      "type": "error"
    },
    {
      "inputs": [
        {
          "internalType": "address",
          "name": "sender",
          "type": "address"
        }
      ],
      "name": "ERC721InvalidSender",
      "type": "error"
    },
    {
      "inputs": [
        {
          "internalType": "uint256",
          "name": "tokenId",
          "type": "uint256"
        }
      ],
      "name": "ERC721NonexistentToken",
      "type": "error"
    },
    {
      "inputs": [
        {
          "internalType": "address",
          "name": "owner",
          "type": "address"
        },
        {
          "internalType": "uint256",
          "name": "index",
          "type": "uint256"
        }
      ],
      "name": "ERC721OutOfBoundsIndex",
      "type": "error"
    },
    {
      "inputs": [
        {
          "internalType": "address",
          "name": "owner",
          "type": "address"
        }
      ],
      "name": "OwnableInvalidOwner",
      "type": "error"
    },
    {
      "inputs": [
        {
          "internalType": "address",
          "name": "account",
          "type": "address"
        }
      ],
      "name": "OwnableUnauthorizedAccount",
      "type": "error"
    },
    {
      "anonymous": false,
      "inputs": [
        {
          "indexed": true,
          "internalType": "address",
          "name": "owner",
          "type": "address"
        },
        {
          "indexed": true,
          "internalType": "address",
          "name": "approved",
          "type": "address"
        },
        {
          "indexed": true,
          "internalType": "uint256",
          "name": "tokenId",
          "type": "uint256"
        }
      ],
      "name": "Approval",
      "type": "event"
    },
    {
      "anonymous": false,
      "inputs": [
        {
          "indexed": true,
          "internalType": "address",
          "name": "owner",
          "type": "address"
        },
        {
          "indexed": true,
          "internalType": "address",
          "name": "operator",
          "type": "address"
        },
        {
          "indexed": false,
          "internalType": "bool",
          "name": "approved",
          "type": "bool"
        }
      ],
      "name": "ApprovalForAll",
      "type": "event"
    },
    {
      "anonymous": false,
      "inputs": [
        {
          "indexed": true,
          "internalType": "uint256",
          "name": "tokenId",
          "type": "uint256"
        }
      ],
      "name": "EggHatched",
      "type": "event"
    },
    {
      "anonymous": false,
      "inputs": [
        {
          "indexed": true,
          "internalType": "address",
          "name": "owner",
          "type": "address"
        },
        {
          "indexed": true,
          "internalType": "uint256",
          "name": "tokenId",
          "type": "uint256"
        }
      ],
      "name": "EggMinted",
      "type": "event"
    },
    {
      "anonymous": false,
      "inputs": [
        {
          "indexed": true,
          "internalType": "uint256",
          "name": "tokenId",
          "type": "uint256"
        },
        {
          "indexed": false,
          "internalType": "uint256",
          "name": "startTime",
          "type": "uint256"
        }
      ],
      "name": "IncubationStarted",
      "type": "event"
    },
    {
      "anonymous": false,
      "inputs": [
        {
          "indexed": true,
          "internalType": "address",
          "name": "previousOwner",
          "type": "address"
        },
        {
          "indexed": true,
          "internalType": "address",
          "name": "newOwner",
          "type": "address"
        }
      ],
      "name": "OwnershipTransferred",
      "type": "event"
    },
    {
      "anonymous": false,
      "inputs": [
        {
          "indexed": true,
          "internalType": "address",
          "name": "from",
          "type": "address"
        },
        {
          "indexed": true,
          "internalType": "address",
          "name": "to",
          "type": "address"
        },
        {
          "indexed": true,
          "internalType": "uint256",
          "name": "tokenId",
          "type": "uint256"
        }
      ],
      "name": "Transfer",
      "type": "event"
    },
    {
      "inputs": [],
      "name": "INCUBATION_DURATION",
      "outputs": [
        {
          "internalType": "uint256",
          "name": "",
          "type": "uint256"
        }
      ],
      "stateMutability": "view",
      "type": "function"
    },
    {
      "inputs": [
        {
          "internalType": "address",
          "name": "to",
          "type": "address"
        },
        {
          "internalType": "uint256",
          "name": "tokenId",
          "type": "uint256"
        }
      ],
      "name": "approve",
      "outputs": [],
      "stateMutability": "nonpayable",
      "type": "function"
    },
    {
      "inputs": [
        {
          "internalType": "address",
          "name": "owner",
          "type": "address"
        }
      ],
      "name": "balanceOf",
      "outputs": [
        {
          "internalType": "uint256",
          "name": "",
          "type": "uint256"
        }
      ],
      "stateMutability": "view",
      "type": "function"
    },
    {
      "inputs": [
        {
          "internalType": "uint256",
          "name": "_tokenId",
          "type": "uint256"
        }
      ],
      "name": "burn",
      "outputs": [],
      "stateMutability": "nonpayable",
      "type": "function"
    },
    {
      "inputs": [
        {
          "internalType": "uint256",
          "name": "_tokenId",
          "type": "uint256"
        }
      ],
      "name": "canHatch",
      "outputs": [
        {
          "internalType": "bool",
          "name": "",
          "type": "bool"
        }
      ],
      "stateMutability": "view",
      "type": "function"
    },
    {
      "inputs": [
        {
          "internalType": "uint256",
          "name": "",
          "type": "uint256"
        }
      ],
      "name": "eggs",
      "outputs": [
        {
          "internalType": "uint256",
          "name": "mintedAt",
          "type": "uint256"
        },
        {
          "internalType": "uint256",
          "name": "incubationStartedAt",
          "type": "uint256"
        },
        {
          "internalType": "bool",
          "name": "isIncubating",
          "type": "bool"
        }
      ],
      "stateMutability": "view",
      "type": "function"
    },
    {
      "inputs": [],
      "name": "gameContract",
      "outputs": [
        {
          "internalType": "address",
          "name": "",
          "type": "address"
        }
      ],
      "stateMutability": "view",
      "type": "function"
    },
    {
      "inputs": [
        {
          "internalType": "uint256",
          "name": "tokenId",
          "type": "uint256"
        }
      ],
      "name": "getApproved",
      "outputs": [
        {
          "internalType": "address",
          "name": "",
          "type": "address"
        }
      ],
      "stateMutability": "view",
      "type": "function"
    },
    {
      "inputs": [
        {
          "internalType": "uint256",
          "name": "_tokenId",
          "type": "uint256"
        }
      ],
      "name": "getEggInfo",
      "outputs": [
        {
          "components": [
            {
              "internalType": "uint256",
              "name": "mintedAt",
              "type": "uint256"
            },
            {
              "internalType": "uint256",
              "name": "incubationStartedAt",
              "type": "uint256"
            },
            {
              "internalType": "bool",
              "name": "isIncubating",
              "type": "bool"
            }
          ],
          "internalType": "struct EggNFT.EggInfo",
          "name": "",
          "type": "tuple"
        }
      ],
      "stateMutability": "view",
      "type": "function"
    },
    {
      "inputs": [
        {
          "internalType": "uint256",
          "name": "_tokenId",
          "type": "uint256"
        }
      ],
      "name": "getTimeUntilHatch",
      "outputs": [
        {
          "internalType": "uint256",
          "name": "",
          "type": "uint256"
        }
      ],
      "stateMutability": "view",
      "type": "function"
    },
    {
      "inputs": [
        {
          "internalType": "address",
          "name": "owner",
          "type": "address"
        },
        {
          "internalType": "address",
          "name": "operator",
          "type": "address"
        }
      ],
      "name": "isApprovedForAll",
      "outputs": [
        {
          "internalType": "bool",
          "name": "",
          "type": "bool"
        }
      ],
      "stateMutability": "view",
      "type": "function"
    },
    {
      "inputs": [
        {
          "internalType": "address",
          "name": "_to",
          "type": "address"
        }
      ],
      "name": "mint",
      "outputs": [
        {
          "internalType": "uint256",
          "name": "",
          "type": "uint256"
        }
      ],
      "stateMutability": "nonpayable",
      "type": "function"
    },
    {
      "inputs": [],
      "name": "name",
      "outputs": [
        {
          "internalType": "string",
          "name": "",
          "type": "string"
        }
      ],
      "stateMutability": "view",
      "type": "function"
    },
    {
      "inputs": [],
      "name": "owner",
      "outputs": [
        {
          "internalType": "address",
          "name": "",
          "type": "address"
        }
      ],
      "stateMutability": "view",
      "type": "function"
    },
    {
      "inputs": [
        {
          "internalType": "uint256",
          "name": "tokenId",
          "type": "uint256"
        }
      ],
      "name": "ownerOf",
      "outputs": [
        {
          "internalType": "address",
          "name": "",
          "type": "address"
        }
      ],
      "stateMutability": "view",
      "type": "function"
    },
    {
      "inputs": [],
      "name": "renounceOwnership",
      "outputs": [],
      "stateMutability": "nonpayable",
      "type": "function"
    },
    {
      "inputs": [
        {
          "internalType": "address",
          "name": "from",
          "type": "address"
        },
        {
          "internalType": "address",
          "name": "to",
          "type": "address"
        },
        {
          "internalType": "uint256",
          "name": "tokenId",
          "type": "uint256"
        }
      ],
      "name": "safeTransferFrom",
      "outputs": [],
      "stateMutability": "nonpayable",
      "type": "function"
    },
    {
      "inputs": [
        {
          "internalType": "address",
          "name": "from",
          "type": "address"
        },
        {
          "internalType": "address",
          "name": "to",
          "type": "address"
        },
        {
          "internalType": "uint256",
          "name": "tokenId",
          "type": "uint256"
        },
        {
          "internalType": "bytes",
          "name": "data",
          "type": "bytes"
        }
      ],
      "name": "safeTransferFrom",
      "outputs": [],
      "stateMutability": "nonpayable",
      "type": "function"
    },
    {
      "inputs": [
        {
          "internalType": "address",
          "name": "operator",
          "type": "address"
        },
        {
          "internalType": "bool",
          "name": "approved",
          "type": "bool"
        }
      ],
      "name": "setApprovalForAll",
      "outputs": [],
      "stateMutability": "nonpayable",
      "type": "function"
    },
    {
      "inputs": [
        {
          "internalType": "address",
          "name": "_gameContract",
          "type": "address"
        }
      ],
      "name": "setGameContract",
      "outputs": [],
      "stateMutability": "nonpayable",
      "type": "function"
    },
    {
      "inputs": [
        {
          "internalType": "uint256",
          "name": "_tokenId",
          "type": "uint256"
        }
      ],
      "name": "startIncubation",
      "outputs": [],
      "stateMutability": "nonpayable",
      "type": "function"
    },
    {
      "inputs": [
        {
          "internalType": "bytes4",
          "name": "interfaceId",
          "type": "bytes4"
        }
      ],
      "name": "supportsInterface",
      "outputs": [
        {
          "internalType": "bool",
          "name": "",
          "type": "bool"
        }
      ],
      "stateMutability": "view",
      "type": "function"
    },
    {
      "inputs": [],
      "name": "symbol",
      "outputs": [
        {
          "internalType": "string",
          "name": "",
          "type": "string"
        }
      ],
      "stateMutability": "view",
      "type": "function"
    },
    {
      "inputs": [
        {
          "internalType": "uint256",
          "name": "index",
          "type": "uint256"
        }
      ],
      "name": "tokenByIndex",
      "outputs": [
        {
          "internalType": "uint256",
          "name": "",
          "type": "uint256"
        }
      ],
      "stateMutability": "view",
      "type": "function"
    },
    {
      "inputs": [
        {
          "internalType": "address",
          "name": "owner",
          "type": "address"
        },
        {
          "internalType": "uint256",
          "name": "index",
          "type": "uint256"
        }
      ],
      "name": "tokenOfOwnerByIndex",
      "outputs": [
        {
          "internalType": "uint256",
          "name": "",
          "type": "uint256"
        }
      ],
      "stateMutability": "view",
      "type": "function"
    },
    {
      "inputs": [
        {
          "internalType": "uint256",
          "name": "tokenId",
          "type": "uint256"
        }
      ],
      "name": "tokenURI",
      "outputs": [
        {
          "internalType": "string",
          "name": "",
          "type": "string"
        }
      ],
      "stateMutability": "view",
      "type": "function"
    },
    {
      "inputs": [],
      "name": "totalSupply",
      "outputs": [
        {
          "internalType": "uint256",
          "name": "",
          "type": "uint256"
        }
      ],
      "stateMutability": "view",
      "type": "function"
    },
    {
      "inputs": [
        {
          "internalType": "address",
          "name": "from",
          "type": "address"
        },
        {
          "internalType": "address",
          "name": "to",
          "type": "address"
        },
        {
          "internalType": "uint256",
          "name": "tokenId",
          "type": "uint256"
        }
      ],
      "name": "transferFrom",
      "outputs": [],
      "stateMutability": "nonpayable",
      "type": "function"
    },
    {
      "inputs": [
        {
          "internalType": "address",
          "name": "newOwner",
          "type": "address"
        }
      ],
      "name": "transferOwnership",
      "outputs": [],
      "stateMutability": "nonpayable",
      "type": "function"
    }
  ],
  "bytecode": "0x60806040523480156200001157600080fd5b50336040518060400160405280600b81526020017f46727952656566204567670000000000000000000000000000000000000000008152506040518060400160405280600681526020017f4652594547470000000000000000000000000000000000000000000000000000815250816000908162000090919062000472565b508060019081620000a2919062000472565b505050600073ffffffffffffffffffffffffffffffffffffffff168173ffffffffffffffffffffffffffffffffffffffff16036200011a5760006040517f1e4fbdf70000000000000000000000000000000000000000000000000000000081526004016200011191906200059e565b60405180910390fd5b6200012b816200013260201b60201c565b50620005bb565b6000600a60009054906101000a900473ffffffffffffffffffffffffffffffffffffffff16905081600a60006101000a81548173ffffffffffffffffffffffffffffffffffffffff021916908373ffffffffffffffffffffffffffffffffffffffff1602179055508173ffffffffffffffffffffffffffffffffffffffff168173ffffffffffffffffffffffffffffffffffffffff167f8be0079c531659141344cd1fd0a4f28419497f9722a3daafe3b4186f6b6457e060405160405180910390a35050565b600081519050919050565b7f4e487b7100000000000000000000000000000000000000000000000000000000600052604160045260246000fd5b7f4e487b7100000000000000000000000000000000000000000000000000000000600052602260045260246000fd5b600060028204905060018216806200027a57607f821691505b60208210810362000290576200028f62000232565b5b50919050565b60008190508160005260206000209050919050565b60006020601f8301049050919050565b600082821b905092915050565b600060088302620002fa7fffffffffffffffffffffffffffffffffffffffffffffffffffffffffffffffff82620002bb565b620003068683620002bb565b95508019841693508086168417925050509392505050565b6000819050919050565b6000819050919050565b6000620003536200034d62000347846200031e565b62000328565b6200031e565b9050919050565b6000819050919050565b6200036f8362000332565b620003876200037e826200035a565b848454620002c8565b825550505050565b600090565b6200039e6200038f565b620003ab81848462000364565b505050565b5b81811015620003d357620003c760008262000394565b600181019050620003b1565b5050565b601f8211156200042257620003ec8162000296565b620003f784620002ab565b8101602085101562000407578190505b6200041f6200041685620002ab565b830182620003b0565b50505b505050565b600082821c905092915050565b6000620004476000198460080262000427565b1980831691505092915050565b600062000462838362000434565b9150826002028217905092915050565b6200047d82620001f8565b67ffffffffffffffff81111562000499576200049862000203565b5b620004a5825462000261565b620004b2828285620003d7565b600060209050601f831160018114620004ea5760008415620004d5578287015190505b620004e1858262000454565b86555062000551565b601f198416620004fa8662000296565b60005b828110156200052457848901518255600182019150602085019450602081019050620004fd565b8683101562000544578489015162000540601f89168262000434565b8355505b6001600288020188555050505b505050505050565b600073ffffffffffffffffffffffffffffffffffffffff82169050919050565b6000620005868262000559565b9050919050565b620005988162000579565b82525050565b6000602082019050620005b560008301846200058d565b92915050565b6133c080620005cb6000396000f3fe608060405234801561001057600080fd5b50600436106101cf5760003560e01c806370a0823111610104578063b88d4fde116100a2578063e67c7fdc11610071578063e67c7fdc14610568578063e845f3ed14610598578063e985e9c5146105b4578063f2fde38b146105e4576101cf565b8063b88d4fde146104cc578063bb654efa146104e8578063c87b56dd1461051a578063d3f330091461054a576101cf565b80638da5cb5b116100de5780638da5cb5b1461044457806395d89b4114610462578063a22cb46514610480578063a80d99f11461049c576101cf565b806370a08231146103ec578063715018a61461041c57806389ec974b14610426576101cf565b8063405ebd4d116101715780634f6ccce71161014b5780634f6ccce71461032c5780635149a6cd1461035c5780636352211e1461038c5780636a627842146103bc576101cf565b8063405ebd4d146102d857806342842e0e146102f457806342966c6814610310576101cf565b8063095ea7b3116101ad578063095ea7b31461025257806318160ddd1461026e57806323b872dd1461028c5780632f745c59146102a8576101cf565b806301ffc9a7146101d457806306fdde0314610204578063081812fc14610222575b600080fd5b6101ee60048036038101906101e991906128d7565b610600565b6040516101fb919061291f565b60405180910390f35b61020c610612565b60405161021991906129ca565b60405180910390f35b61023c60048036038101906102379190612a22565b6106a4565b6040516102499190612a90565b60405180910390f35b61026c60048036038101906102679190612ad7565b6106c0565b005b6102766106d6565b6040516102839190612b26565b60405180910390f35b6102a660048036038101906102a19190612b41565b6106e3565b005b6102c260048036038101906102bd9190612ad7565b6107e5565b6040516102cf9190612b26565b60405180910390f35b6102f260048036038101906102ed9190612b94565b61088e565b005b61030e60048036038101906103099190612b41565b6108da565b005b61032a60048036038101906103259190612a22565b6108fa565b005b61034660048036038101906103419190612a22565b610a45565b6040516103539190612b26565b60405180910390f35b61037660048036038101906103719190612a22565b610abb565b604051610383919061291f565b60405180910390f35b6103a660048036038101906103a19190612a22565b610b29565b6040516103b39190612a90565b60405180910390f35b6103d660048036038101906103d19190612b94565b610b3b565b6040516103e39190612b26565b60405180910390f35b61040660048036038101906104019190612b94565b610ca8565b6040516104139190612b26565b60405180910390f35b610424610d62565b005b61042e610d76565b60405161043b9190612b26565b60405180910390f35b61044c610d7d565b6040516104599190612a90565b60405180910390f35b61046a610da7565b60405161047791906129ca565b60405180910390f35b61049a60048036038101906104959190612bed565b610e39565b005b6104b660048036038101906104b19190612a22565b610e4f565b6040516104c39190612c8d565b60405180910390f35b6104e660048036038101906104e19190612ddd565b610ef3565b005b61050260048036038101906104fd9190612a22565b610f18565b60405161051193929190612e60565b60405180910390f35b610534600480360381019061052f9190612a22565b610f4f565b60405161054191906129ca565b60405180910390f35b610552610fb8565b60405161055f9190612a90565b60405180910390f35b610582600480360381019061057d9190612a22565b610fde565b60405161058f9190612b26565b60405180910390f35b6105b260048036038101906105ad9190612a22565b6110bd565b005b6105ce60048036038101906105c99190612e97565b61127e565b6040516105db919061291f565b60405180910390f35b6105fe60048036038101906105f99190612b94565b611312565b005b600061060b82611398565b9050919050565b60606000805461062190612f06565b80601f016020809104026020016040519081016040528092919081815260200182805461064d90612f06565b801561069a5780601f1061066f5761010080835404028352916020019161069a565b820191906000526020600020905b81548152906001019060200180831161067d57829003601f168201915b5050505050905090565b60006106af82611412565b506106b98261149a565b9050919050565b6106d282826106cd6114d7565b6114df565b5050565b6000600880549050905090565b600073ffffffffffffffffffffffffffffffffffffffff168273ffffffffffffffffffffffffffffffffffffffff16036107555760006040517f64a0ae9200000000000000000000000000000000000000000000000000000000815260040161074c9190612a90565b60405180910390fd5b600061076983836107646114d7565b6114f1565b90508373ffffffffffffffffffffffffffffffffffffffff168173ffffffffffffffffffffffffffffffffffffffff16146107df578382826040517f64283d7b0000000000000000000000000000000000000000000000000000000081526004016107d693929190612f37565b60405180910390fd5b50505050565b60006107f083610ca8565b82106108355782826040517fa57d13dc00000000000000000000000000000000000000000000000000000000815260040161082c929190612f6e565b60405180910390fd5b600660008473ffffffffffffffffffffffffffffffffffffffff1673ffffffffffffffffffffffffffffffffffffffff168152602001908152602001600020600083815260200190815260200160002054905092915050565b610896611507565b80600c60006101000a81548173ffffffffffffffffffffffffffffffffffffffff021916908373ffffffffffffffffffffffffffffffffffffffff16021790555050565b6108f583838360405180602001604052806000815250610ef3565b505050565b600c60009054906101000a900473ffffffffffffffffffffffffffffffffffffffff1673ffffffffffffffffffffffffffffffffffffffff163373ffffffffffffffffffffffffffffffffffffffff161461098a576040517f08c379a000000000000000000000000000000000000000000000000000000000815260040161098190612fe3565b60405180910390fd5b6109938161158e565b6109d2576040517f08c379a00000000000000000000000000000000000000000000000000000000081526004016109c99061304f565b60405180910390fd5b6109db816115cf565b600d600082815260200190815260200160002060008082016000905560018201600090556002820160006101000a81549060ff02191690555050807f7d5d54f407ac1898c968f412b395ec5028e137135c054e8e6bd091c032de527b60405160405180910390a250565b6000610a4f6106d6565b8210610a95576000826040517fa57d13dc000000000000000000000000000000000000000000000000000000008152600401610a8c929190612f6e565b60405180910390fd5b60088281548110610aa957610aa861306f565b5b90600052602060002001549050919050565b6000610ac68261158e565b610ad35760009050610b24565b6000600d600084815260200190815260200160002090508060020160009054906101000a900460ff16610b0a576000915050610b24565b620151808160010154610b1d91906130cd565b4210159150505b919050565b6000610b3482611412565b9050919050565b6000600c60009054906101000a900473ffffffffffffffffffffffffffffffffffffffff1673ffffffffffffffffffffffffffffffffffffffff163373ffffffffffffffffffffffffffffffffffffffff1614610bcd576040517f08c379a0000000000000000000000000000000000000000000000000000000008152600401610bc490612fe3565b60405180910390fd5b6000600b6000815480929190610be290613101565b919050559050610bf28382611655565b60405180606001604052804281526020016000815260200160001515815250600d6000838152602001908152602001600020600082015181600001556020820151816001015560408201518160020160006101000a81548160ff021916908315150217905550905050808373ffffffffffffffffffffffffffffffffffffffff167ff9c8014ab81abf7f6fc09dfb350fc7f382935891056dc84bed8f29107b03fed660405160405180910390a380915050919050565b60008073ffffffffffffffffffffffffffffffffffffffff168273ffffffffffffffffffffffffffffffffffffffff1603610d1b5760006040517f89c62b64000000000000000000000000000000000000000000000000000000008152600401610d129190612a90565b60405180910390fd5b600360008373ffffffffffffffffffffffffffffffffffffffff1673ffffffffffffffffffffffffffffffffffffffff168152602001908152602001600020549050919050565b610d6a611507565b610d746000611673565b565b6201518081565b6000600a60009054906101000a900473ffffffffffffffffffffffffffffffffffffffff16905090565b606060018054610db690612f06565b80601f0160208091040260200160405190810160405280929190818152602001828054610de290612f06565b8015610e2f5780601f10610e0457610100808354040283529160200191610e2f565b820191906000526020600020905b815481529060010190602001808311610e1257829003601f168201915b5050505050905090565b610e4b610e446114d7565b8383611739565b5050565b610e57612848565b610e608261158e565b610e9f576040517f08c379a0000000000000000000000000000000000000000000000000000000008152600401610e969061304f565b60405180910390fd5b600d600083815260200190815260200160002060405180606001604052908160008201548152602001600182015481526020016002820160009054906101000a900460ff1615151515815250509050919050565b610efe8484846106e3565b610f12610f096114d7565b858585856118a8565b50505050565b600d6020528060005260406000206000915090508060000154908060010154908060020160009054906101000a900460ff16905083565b6060610f5a82611412565b506000610f65611a59565b90506000815111610f855760405180602001604052806000815250610fb0565b80610f8f84611a70565b604051602001610fa0929190613185565b6040516020818303038152906040525b915050919050565b600c60009054906101000a900473ffffffffffffffffffffffffffffffffffffffff1681565b6000610fe98261158e565b611028576040517f08c379a000000000000000000000000000000000000000000000000000000000815260040161101f9061304f565b60405180910390fd5b6000600d600084815260200190815260200160002090508060020160009054906101000a900460ff1661107e577fffffffffffffffffffffffffffffffffffffffffffffffffffffffffffffffff9150506110b8565b600062015180826001015461109391906130cd565b90508042106110a7576000925050506110b8565b42816110b391906131a9565b925050505b919050565b600c60009054906101000a900473ffffffffffffffffffffffffffffffffffffffff1673ffffffffffffffffffffffffffffffffffffffff163373ffffffffffffffffffffffffffffffffffffffff161461114d576040517f08c379a000000000000000000000000000000000000000000000000000000000815260040161114490612fe3565b60405180910390fd5b6111568161158e565b611195576040517f08c379a000000000000000000000000000000000000000000000000000000000815260040161118c9061304f565b60405180910390fd5b600d600082815260200190815260200160002060020160009054906101000a900460ff16156111f9576040517f08c379a00000000000000000000000000000000000000000000000000000000081526004016111f090613229565b60405180910390fd5b6001600d600083815260200190815260200160002060020160006101000a81548160ff02191690831515021790555042600d600083815260200190815260200160002060010181905550807ff64e7c5ad87e83c89ac729ee228162a9ff0ef533e4d8669eebedb8071094d036426040516112739190612b26565b60405180910390a250565b6000600560008473ffffffffffffffffffffffffffffffffffffffff1673ffffffffffffffffffffffffffffffffffffffff16815260200190815260200160002060008373ffffffffffffffffffffffffffffffffffffffff1673ffffffffffffffffffffffffffffffffffffffff16815260200190815260200160002060009054906101000a900460ff16905092915050565b61131a611507565b600073ffffffffffffffffffffffffffffffffffffffff168173ffffffffffffffffffffffffffffffffffffffff160361138c5760006040517f1e4fbdf70000000000000000000000000000000000000000000000000000000081526004016113839190612a90565b60405180910390fd5b61139581611673565b50565b60007f780e9d63000000000000000000000000000000000000000000000000000000007bffffffffffffffffffffffffffffffffffffffffffffffffffffffff1916827bffffffffffffffffffffffffffffffffffffffffffffffffffffffff1916148061140b575061140a82611b3e565b5b9050919050565b60008061141e83611c20565b9050600073ffffffffffffffffffffffffffffffffffffffff168173ffffffffffffffffffffffffffffffffffffffff160361149157826040517f7e2732890000000000000000000000000000000000000000000000000000000081526004016114889190612b26565b60405180910390fd5b80915050919050565b60006004600083815260200190815260200160002060009054906101000a900473ffffffffffffffffffffffffffffffffffffffff169050919050565b600033905090565b6114ec8383836001611c5d565b505050565b60006114fe848484611e22565b90509392505050565b61150f6114d7565b73ffffffffffffffffffffffffffffffffffffffff1661152d610d7d565b73ffffffffffffffffffffffffffffffffffffffff161461158c576115506114d7565b6040517f118cdaa70000000000000000000000000000000000000000000000000000000081526004016115839190612a90565b60405180910390fd5b565b60008073ffffffffffffffffffffffffffffffffffffffff166115b083611c20565b73ffffffffffffffffffffffffffffffffffffffff1614159050919050565b60006115de60008360006114f1565b9050600073ffffffffffffffffffffffffffffffffffffffff168173ffffffffffffffffffffffffffffffffffffffff160361165157816040517f7e2732890000000000000000000000000000000000000000000000000000000081526004016116489190612b26565b60405180910390fd5b5050565b61166f828260405180602001604052806000815250611f3f565b5050565b6000600a60009054906101000a900473ffffffffffffffffffffffffffffffffffffffff16905081600a60006101000a81548173ffffffffffffffffffffffffffffffffffffffff021916908373ffffffffffffffffffffffffffffffffffffffff1602179055508173ffffffffffffffffffffffffffffffffffffffff168173ffffffffffffffffffffffffffffffffffffffff167f8be0079c531659141344cd1fd0a4f28419497f9722a3daafe3b4186f6b6457e060405160405180910390a35050565b600073ffffffffffffffffffffffffffffffffffffffff168273ffffffffffffffffffffffffffffffffffffffff16036117aa57816040517f5b08ba180000000000000000000000000000000000000000000000000000000081526004016117a19190612a90565b60405180910390fd5b80600560008573ffffffffffffffffffffffffffffffffffffffff1673ffffffffffffffffffffffffffffffffffffffff16815260200190815260200160002060008473ffffffffffffffffffffffffffffffffffffffff1673ffffffffffffffffffffffffffffffffffffffff16815260200190815260200160002060006101000a81548160ff0219169083151502179055508173ffffffffffffffffffffffffffffffffffffffff168373ffffffffffffffffffffffffffffffffffffffff167f17307eab39ab6107e8899845ad3d59bd9653f200f220920489ca2b5937696c318360405161189b919061291f565b60405180910390a3505050565b60008373ffffffffffffffffffffffffffffffffffffffff163b1115611a52578273ffffffffffffffffffffffffffffffffffffffff1663150b7a02868685856040518563ffffffff1660e01b8152600401611907949392919061329e565b6020604051808303816000875af192505050801561194357506040513d601f19601f8201168201806040525081019061194091906132ff565b60015b6119c7573d8060008114611973576040519150601f19603f3d011682016040523d82523d6000602084013e611978565b606091505b5060008151036119bf57836040517f64a0ae920000000000000000000000000000000000000000000000000000000081526004016119b69190612a90565b60405180910390fd5b805160208201fd5b63150b7a0260e01b7bffffffffffffffffffffffffffffffffffffffffffffffffffffffff1916817bffffffffffffffffffffffffffffffffffffffffffffffffffffffff191614611a5057836040517f64a0ae92000000000000000000000000000000000000000000000000000000008152600401611a479190612a90565b60405180910390fd5b505b5050505050565b606060405180602001604052806000815250905090565b606060006001611a7f84611f63565b01905060008167ffffffffffffffff811115611a9e57611a9d612cb2565b5b6040519080825280601f01601f191660200182016040528015611ad05781602001600182028036833780820191505090505b509050600082602083010190505b600115611b33578080600190039150507f3031323334353637383961626364656600000000000000000000000000000000600a86061a8153600a8581611b2757611b2661332c565b5b04945060008503611ade575b819350505050919050565b60007f80ac58cd000000000000000000000000000000000000000000000000000000007bffffffffffffffffffffffffffffffffffffffffffffffffffffffff1916827bffffffffffffffffffffffffffffffffffffffffffffffffffffffff19161480611c0957507f5b5e139f000000000000000000000000000000000000000000000000000000007bffffffffffffffffffffffffffffffffffffffffffffffffffffffff1916827bffffffffffffffffffffffffffffffffffffffffffffffffffffffff1916145b80611c195750611c18826120b6565b5b9050919050565b60006002600083815260200190815260200160002060009054906101000a900473ffffffffffffffffffffffffffffffffffffffff169050919050565b8080611c965750600073ffffffffffffffffffffffffffffffffffffffff168273ffffffffffffffffffffffffffffffffffffffff1614155b15611dca576000611ca684611412565b9050600073ffffffffffffffffffffffffffffffffffffffff168373ffffffffffffffffffffffffffffffffffffffff1614158015611d1157508273ffffffffffffffffffffffffffffffffffffffff168173ffffffffffffffffffffffffffffffffffffffff1614155b8015611d245750611d22818461127e565b155b15611d6657826040517fa9fbf51f000000000000000000000000000000000000000000000000000000008152600401611d5d9190612a90565b60405180910390fd5b8115611dc857838573ffffffffffffffffffffffffffffffffffffffff168273ffffffffffffffffffffffffffffffffffffffff167f8c5be1e5ebec7d5bd14f71427d1e84f3dd0314c0f7b2291e5b200ac8c7c3b92560405160405180910390a45b505b836004600085815260200190815260200160002060006101000a81548173ffffffffffffffffffffffffffffffffffffffff021916908373ffffffffffffffffffffffffffffffffffffffff16021790555050505050565b600080611e30858585612120565b9050600073ffffffffffffffffffffffffffffffffffffffff168173ffffffffffffffffffffffffffffffffffffffff1603611e7457611e6f8461233a565b611eb3565b8473ffffffffffffffffffffffffffffffffffffffff168173ffffffffffffffffffffffffffffffffffffffff1614611eb257611eb18185612383565b5b5b600073ffffffffffffffffffffffffffffffffffffffff168573ffffffffffffffffffffffffffffffffffffffff1603611ef557611ef08461246e565b611f34565b8473ffffffffffffffffffffffffffffffffffffffff168173ffffffffffffffffffffffffffffffffffffffff1614611f3357611f32858561253f565b5b5b809150509392505050565b611f4983836125ca565b611f5e611f546114d7565b60008585856118a8565b505050565b600080600090507a184f03e93ff9f4daa797ed6e38ed64bf6a1f0100000000000000008310611fc1577a184f03e93ff9f4daa797ed6e38ed64bf6a1f0100000000000000008381611fb757611fb661332c565b5b0492506040810190505b6d04ee2d6d415b85acef81000000008310611ffe576d04ee2d6d415b85acef81000000008381611ff457611ff361332c565b5b0492506020810190505b662386f26fc10000831061202d57662386f26fc1000083816120235761202261332c565b5b0492506010810190505b6305f5e1008310612056576305f5e100838161204c5761204b61332c565b5b0492506008810190505b612710831061207b5761271083816120715761207061332c565b5b0492506004810190505b6064831061209e57606483816120945761209361332c565b5b0492506002810190505b600a83106120ad576001810190505b80915050919050565b60007f01ffc9a7000000000000000000000000000000000000000000000000000000007bffffffffffffffffffffffffffffffffffffffffffffffffffffffff1916827bffffffffffffffffffffffffffffffffffffffffffffffffffffffff1916149050919050565b60008061212c84611c20565b9050600073ffffffffffffffffffffffffffffffffffffffff168373ffffffffffffffffffffffffffffffffffffffff161461216e5761216d8184866126c3565b5b600073ffffffffffffffffffffffffffffffffffffffff168173ffffffffffffffffffffffffffffffffffffffff16146121ff576121b0600085600080611c5d565b6001600360008373ffffffffffffffffffffffffffffffffffffffff1673ffffffffffffffffffffffffffffffffffffffff168152602001908152602001600020600082825403925050819055505b600073ffffffffffffffffffffffffffffffffffffffff168573ffffffffffffffffffffffffffffffffffffffff1614612282576001600360008773ffffffffffffffffffffffffffffffffffffffff1673ffffffffffffffffffffffffffffffffffffffff168152602001908152602001600020600082825401925050819055505b846002600086815260200190815260200160002060006101000a81548173ffffffffffffffffffffffffffffffffffffffff021916908373ffffffffffffffffffffffffffffffffffffffff160217905550838573ffffffffffffffffffffffffffffffffffffffff168273ffffffffffffffffffffffffffffffffffffffff167fddf252ad1be2c89b69c2b068fc378daa952ba7f163c4a11628f55a4df523b3ef60405160405180910390a4809150509392505050565b6008805490506009600083815260200190815260200160002081905550600881908060018154018082558091505060019003906000526020600020016000909190919091505550565b600061238e83610ca8565b90506000600760008481526020019081526020016000205490506000600660008673ffffffffffffffffffffffffffffffffffffffff1673ffffffffffffffffffffffffffffffffffffffff168152602001908152602001600020905082821461243a5760008160008581526020019081526020016000205490508082600085815260200190815260200160002081905550826007600083815260200190815260200160002081905550505b6007600085815260200190815260200160002060009055806000848152602001908152602001600020600090555050505050565b6000600160088054905061248291906131a9565b90506000600960008481526020019081526020016000205490506000600883815481106124b2576124b161306f565b5b9060005260206000200154905080600883815481106124d4576124d361306f565b5b9060005260206000200181905550816009600083815260200190815260200160002081905550600960008581526020019081526020016000206000905560088054806125235761252261335b565b5b6001900381819060005260206000200160009055905550505050565b6000600161254c84610ca8565b61255691906131a9565b905081600660008573ffffffffffffffffffffffffffffffffffffffff1673ffffffffffffffffffffffffffffffffffffffff168152602001908152602001600020600083815260200190815260200160002081905550806007600084815260200190815260200160002081905550505050565b600073ffffffffffffffffffffffffffffffffffffffff168273ffffffffffffffffffffffffffffffffffffffff160361263c5760006040517f64a0ae920000000000000000000000000000000000000000000000000000000081526004016126339190612a90565b60405180910390fd5b600061264a838360006114f1565b9050600073ffffffffffffffffffffffffffffffffffffffff168173ffffffffffffffffffffffffffffffffffffffff16146126be5760006040517f73c6ac6e0000000000000000000000000000000000000000000000000000000081526004016126b59190612a90565b60405180910390fd5b505050565b6126ce838383612787565b61278257600073ffffffffffffffffffffffffffffffffffffffff168373ffffffffffffffffffffffffffffffffffffffff160361274357806040517f7e27328900000000000000000000000000000000000000000000000000000000815260040161273a9190612b26565b60405180910390fd5b81816040517f177e802f000000000000000000000000000000000000000000000000000000008152600401612779929190612f6e565b60405180910390fd5b505050565b60008073ffffffffffffffffffffffffffffffffffffffff168373ffffffffffffffffffffffffffffffffffffffff161415801561283f57508273ffffffffffffffffffffffffffffffffffffffff168473ffffffffffffffffffffffffffffffffffffffff16148061280057506127ff848461127e565b5b8061283e57508273ffffffffffffffffffffffffffffffffffffffff166128268361149a565b73ffffffffffffffffffffffffffffffffffffffff16145b5b90509392505050565b604051806060016040528060008152602001600081526020016000151581525090565b6000604051905090565b600080fd5b600080fd5b60007fffffffff0000000000000000000000000000000000000000000000000000000082169050919050565b6128b48161287f565b81146128bf57600080fd5b50565b6000813590506128d1816128ab565b92915050565b6000602082840312156128ed576128ec612875565b5b60006128fb848285016128c2565b91505092915050565b60008115159050919050565b61291981612904565b82525050565b60006020820190506129346000830184612910565b92915050565b600081519050919050565b600082825260208201905092915050565b60005b83811015612974578082015181840152602081019050612959565b60008484015250505050565b6000601f19601f8301169050919050565b600061299c8261293a565b6129a68185612945565b93506129b6818560208601612956565b6129bf81612980565b840191505092915050565b600060208201905081810360008301526129e48184612991565b905092915050565b6000819050919050565b6129ff816129ec565b8114612a0a57600080fd5b50565b600081359050612a1c816129f6565b92915050565b600060208284031215612a3857612a37612875565b5b6000612a4684828501612a0d565b91505092915050565b600073ffffffffffffffffffffffffffffffffffffffff82169050919050565b6000612a7a82612a4f565b9050919050565b612a8a81612a6f565b82525050565b6000602082019050612aa56000830184612a81565b92915050565b612ab481612a6f565b8114612abf57600080fd5b50565b600081359050612ad181612aab565b92915050565b60008060408385031215612aee57612aed612875565b5b6000612afc85828601612ac2565b9250506020612b0d85828601612a0d565b9150509250929050565b612b20816129ec565b82525050565b6000602082019050612b3b6000830184612b17565b92915050565b600080600060608486031215612b5a57612b59612875565b5b6000612b6886828701612ac2565b9350506020612b7986828701612ac2565b9250506040612b8a86828701612a0d565b9150509250925092565b600060208284031215612baa57612ba9612875565b5b6000612bb884828501612ac2565b91505092915050565b612bca81612904565b8114612bd557600080fd5b50565b600081359050612be781612bc1565b92915050565b60008060408385031215612c0457612c03612875565b5b6000612c1285828601612ac2565b9250506020612c2385828601612bd8565b9150509250929050565b612c36816129ec565b82525050565b612c4581612904565b82525050565b606082016000820151612c616000850182612c2d565b506020820151612c746020850182612c2d565b506040820151612c876040850182612c3c565b50505050565b6000606082019050612ca26000830184612c4b565b92915050565b600080fd5b600080fd5b7f4e487b7100000000000000000000000000000000000000000000000000000000600052604160045260246000fd5b612cea82612980565b810181811067ffffffffffffffff82111715612d0957612d08612cb2565b5b80604052505050565b6000612d1c61286b565b9050612d288282612ce1565b919050565b600067ffffffffffffffff821115612d4857612d47612cb2565b5b612d5182612980565b9050602081019050919050565b82818337600083830152505050565b6000612d80612d7b84612d2d565b612d12565b905082815260208101848484011115612d9c57612d9b612cad565b5b612da7848285612d5e565b509392505050565b600082601f830112612dc457612dc3612ca8565b5b8135612dd4848260208601612d6d565b91505092915050565b60008060008060808587031215612df757612df6612875565b5b6000612e0587828801612ac2565b9450506020612e1687828801612ac2565b9350506040612e2787828801612a0d565b925050606085013567ffffffffffffffff811115612e4857612e4761287a565b5b612e5487828801612daf565b91505092959194509250565b6000606082019050612e756000830186612b17565b612e826020830185612b17565b612e8f6040830184612910565b949350505050565b60008060408385031215612eae57612ead612875565b5b6000612ebc85828601612ac2565b9250506020612ecd85828601612ac2565b9150509250929050565b7f4e487b7100000000000000000000000000000000000000000000000000000000600052602260045260246000fd5b60006002820490506001821680612f1e57607f821691505b602082108103612f3157612f30612ed7565b5b50919050565b6000606082019050612f4c6000830186612a81565b612f596020830185612b17565b612f666040830184612a81565b949350505050565b6000604082019050612f836000830185612a81565b612f906020830184612b17565b9392505050565b7f4f6e6c792067616d6520636f6e74726163740000000000000000000000000000600082015250565b6000612fcd601283612945565b9150612fd882612f97565b602082019050919050565b60006020820190508181036000830152612ffc81612fc0565b9050919050565b7f45676720646f6573206e6f742065786973740000000000000000000000000000600082015250565b6000613039601283612945565b915061304482613003565b602082019050919050565b600060208201905081810360008301526130688161302c565b9050919050565b7f4e487b7100000000000000000000000000000000000000000000000000000000600052603260045260246000fd5b7f4e487b7100000000000000000000000000000000000000000000000000000000600052601160045260246000fd5b60006130d8826129ec565b91506130e3836129ec565b92508282019050808211156130fb576130fa61309e565b5b92915050565b600061310c826129ec565b91507fffffffffffffffffffffffffffffffffffffffffffffffffffffffffffffffff820361313e5761313d61309e565b5b600182019050919050565b600081905092915050565b600061315f8261293a565b6131698185613149565b9350613179818560208601612956565b80840191505092915050565b60006131918285613154565b915061319d8284613154565b91508190509392505050565b60006131b4826129ec565b91506131bf836129ec565b92508282039050818111156131d7576131d661309e565b5b92915050565b7f416c726561647920696e6375626174696e670000000000000000000000000000600082015250565b6000613213601283612945565b915061321e826131dd565b602082019050919050565b6000602082019050818103600083015261324281613206565b9050919050565b600081519050919050565b600082825260208201905092915050565b600061327082613249565b61327a8185613254565b935061328a818560208601612956565b61329381612980565b840191505092915050565b60006080820190506132b36000830187612a81565b6132c06020830186612a81565b6132cd6040830185612b17565b81810360608301526132df8184613265565b905095945050505050565b6000815190506132f9816128ab565b92915050565b60006020828403121561331557613314612875565b5b6000613323848285016132ea565b91505092915050565b7f4e487b7100000000000000000000000000000000000000000000000000000000600052601260045260246000fd5b7f4e487b7100000000000000000000000000000000000000000000000000000000600052603160045260246000fdfea2646970667358221220b90c274a90fe6409182384ed91e615dd6a8ee92d7563c675006234de0334ca2564736f6c63430008180033",
  "linkReferences": {},
  "deployedLinkReferences": {}
}